:10000000FFFF0010290100000D01000021BD0000CC
:1000100031BD000041BD000051BD000000000000E6
:100020000000000000000000000000000D2600009D
:1000300021010000000000009D260000E1260000D4
:1000400025010000895C0000355D000025010000ED
:1000500025010000F1D50000FDD5000009D6000003
:1000600015D6000025010000250100002501000033
:1000700025010000250100002501000025010000E8
:1000800025010000250100002501000025010000D8
:1000900025010000250100002501000025010000C8
:1000A00025010000250100002501000025010000B8
:1000B00025010000250100002501000025010000A8
:1000C0002501000025010000250100002501000098
:1000D0002501000025010000250100002501000088
:1000E00025010000249A010000000010AC17000058
:1000F000249A01000000002000000000AC1700104E
:10010000601C00000000002000000000FEE700BFAF
:10011000FEE700BFFEE700BFFEE700BFFEE700BF4F
:10012000FEE700BFFEE700BF70B5194B194EB342A2
:1001300010D2D3E900010C3353F8045C0246002DC1
:10014000F5D0091A146854500432141AA542F9D88B
:10015000B342EED3104A934214D2002603F10801B1
:100160000732521A22F0070210331A4451E902549E
:100170002B4624B11E600433581B8442FAD8083140
:100180009142F3D100F00CF90BF01AFEFEE700BF2C
:10019000E4000000FC0000000C01000052B1034626
:1001A00010B4091A1C685C5004331C1AA242F9D816
:1001B00010BC7047704700BF49B110B4034600241B
:1001C0001C6004331A1A9142FAD810BC7047704769
:1001D000FEE700BFFEE700BFFEE700BF6D4B70B457
:1001E000D3F80421D10542D4D3F80C21D20758D436
:1001F000D3F8042112F01F0206D0D3F80431664A66
:1002000003F01F03B2FBF3F2644B62481A60D0F8AC
:10021000A81111F01F0106D0D0F8A8015E4900F026
:100220001F00B1FBF0F15B485960D0F8001101F0FC
:1002300001010131B2FBF1F29A60564AD2F808117D
:10024000C80522D4D2F8081111F400715DD070BC39
:10025000D2F80C11C9074CBFD2F8A810D2F88810F8
:100260004D4A01F01F0101FB0222DA607047D3F80A
:100270008820D5051FD40022484BC3E900229A608C
:10028000444AD2F80811C805DCD5D2F8082102F09A
:100290001F02042A5DD0062A5BD070BC0022DA60FF
:1002A0007047D3F8A0215606E5D5D3F8042112F003
:1002B0001F02A9D0A1E7D3F80C2112F0010227D127
:1002C000D3F88840D3F8041104F01F04D3F8A80130
:1002D000661C11F01F0400F01F00D3F800314BD052
:1002E0002D4D03F0010105FB06F3B3FBF4F40131DE
:1002F000B4FBF1F1294B1C6020B1274A02FB06F246
:10030000B2FBF0F2C3E90121BAE7D96070BC7047D3
:10031000D3F8A0215406AED5D3F88800D3F8042131
:10032000D3F8A81100F01F0012F01F0200F1010025
:1003300001F01F01D3F8003121D11446174B1C6086
:1003400021B1154C04FB00F0B0FBF1F1C3E901123F
:1003500096E71049104AD1F88840D1F8080104F016
:100360001F0404FB022270BC00F01F00B2FBF0F27D
:10037000D1F80C11DA60704711461446BAE7064C02
:1003800003F0010304FB00F4B4FBF2F45A1CB4FBC9
:10039000F2F2D3E700C00F40001BB70000000010CE
:1003A0001E4B21211A4630B4C3F8A011D2F8A03157
:1003B0005906FBD501210925AA245520174BC2F85F
:1003C0000C11C2F88450C2F88010C2F88C40C2F8F8
:1003D0008C00D3F888205205FBD50121002240F281
:1003E000011540F2012045F23A04C3F80451C3F864
:1003F0000801C3F80011C3F8A811C3F8C420C3F85A
:10040000C821D3F8B011064841F00301C3F8B01178
:100410001C60826030BCFFF7E1BE00BF00C00F402F
:1004200000ED00E0032842D8DFE800F0312111029E
:100430001F4A01F01F03D2F8081121F01F01C2F872
:100440000811D2F808110B43C2F808317047184A56
:1004500001F00103D2F8001121F00101C2F80011EE
:10046000D2F800110B43C2F80031FFF7B7BE104AB3
:1004700001F01F03D2F8A81121F01F01C2F8A81142
:10048000D2F8A8110B43C2F8A831FFF7A7BE084A5B
:1004900001F01F03D2F8041121F01F01C2F804116A
:1004A000D2F804110B43C2F80431FFF797BEFEE700
:1004B00000C00F4003280FD8DFE800F00B0805024A
:1004C000064B18687047064B18687047054B18684C
:1004D0007047054B18687047FEE700BF0C0000101E
:1004E000080000100400001000000010012908D0CE
:1004F00031B9074AD2F8C43023EA0000C2F8C40078
:100500007047034AD2F8C4301843C2F8C400704799
:1005100000C00F400022024BC3F8C02030BF70471C
:1005200000C00F40042008220349044B0861C3F8AF
:10053000C02030BF704700BF00ED00E000C00F409A
:10054000042009220349044B0861C3F8C02030BFCE
:10055000704700BF00ED00E000C00F400420032200
:100560000349044B0861C3F8C02030BF704700BF87
:1005700000ED00E000C00F4038B505460C464FF4D2
:1005800080500121FFF7B2FF002301202B60FFF70D
:1005900091FFC4EB441404EB40036400B3FBF4F399
:1005A000013B1B0243F400132B6038BD036800219C
:1005B00023F4001303604FF48050FFF797BF00BF90
:1005C000024B53F82000C0F30B107047104003405B
:1005D000036823F0E0630360036843EA016101609C
:1005E000704700BF036823F48033036019B10368C8
:1005F00043F4803303607047036823F400130360FF
:1006000019B1036843F4001303607047036823F0D3
:100610000063036019B1036843F00063036070472F
:10062000012310B4C46803FA01F124EA0104C46090
:1006300012B1C3681943C16010BC7047012303FAAB
:1006400001F19A4203680CBF194323EA01010160DA
:10065000704700BF00EB81010869C0F30B107047C1
:1006600000EB810108692AB100F00040003018BF9A
:100670000120704700F08040003018BF0120704713
:1006800040687047406829B100F00040003018BF52
:100690000120704700F08040003018BF01207047F3
:1006A000064B53F8203023B122B91A6822EA01011F
:1006B000196070471A68114319607047F4540100BB
:1006C00001214FF40040FFF711BF00BF00214FF49C
:1006D0000040FFF70BBF00BF052800D8E0E77047D8
:1006E000052804D8024B53F8203003B199617047B4
:1006F000F4540100052804D8024B53F8203003B10C
:10070000D9617047F45401003AB905280CD8074B59
:1007100053F8203043B1D9617047052804D8034B02
:1007200053F8203003B19961704700BFF4540100C1
:10073000052805D8034B53F8200010B140697047D5
:1007400000207047F454010018B952B1012A0ED0AC
:10075000FEE70228FCD13AB1012AF9D1054B5963D1
:100760007047044B19617047024B19637047014B86
:10077000596170478080024018B96AB1012A17D0C8
:10078000FEE70228FCD16AB1012AF9D10B4B986A25
:10079000C84000F001007047084B5868C84000F09E
:1007A00001007047054B586AC84000F001007047CF
:1007B000024B9868C84000F00100704780800240FA
:1007C00010B1022803D0FEE7024BD9607047014BFD
:1007D000D962704780800240052800D970475FE7E2
:1007E000052804D8024B53F8203003B199617047B3
:1007F000F4540100052804D8024B53F8203003B10B
:10080000D9617047F4540100052801D900207047D0
:10081000034B53F820000028F9D04069704700BF0F
:10082000F4540100FFF790BFFFF7A6BF10B10228F4
:1008300003D0FEE7024BD9607047014BD962704785
:1008400080800240052808D8064B53F8203023B199
:1008500022B91A6922EA0101196170471A69114324
:1008600019617047F454010005280CD810B40E4CDF
:1008700004EB8000806920B133B169B143881A4329
:10088000428010BC70477047D24312B241B903880E
:1008900010BC1A400280704703881A430280F0E7B8
:1008A00043881A404280ECE7F454010005280CD834
:1008B00010B40E4C04EB8000806920B133B169B1F3
:1008C000438A1A43428210BC70477047D24312B227
:1008D00041B9038A10BC1A4002827047038A1A4346
:1008E0000282F0E7438A1A404282ECE7F4540100A6
:1008F000052806D8044B03EB800083690BB109B9C6
:100900001A8370475A837047F4540100052806D8AB
:10091000044B03EB800083690BB109B99A837047DC
:10092000DA837047F4540100052808D8064B03EB1E
:100930008000806920B121B9808A80B27047002090
:100940007047C08A80B27047F454010005280DD862
:1009500010B40B4C04EB8000006B28B13BB10329B1
:1009600002D8435C1A43425410BC704770470329B5
:10097000FAD8435C23EA0202425410BC704700BF1D
:10098000F454010005280ED810B40C4C04EB800080
:10099000006B30B143B1032903D80844037C1A43E8
:1009A000027410BC704770470329FAD80844037CCE
:1009B00023EA0202027410BC704700BFF454010025
:1009C000052808D8044B03EB8000036B1BB10329F7
:1009D0009CBF5B181A767047F4540100052808D8AC
:1009E000044B03EB8000036B1BB103299CBF5B1816
:1009F0001A777047F454010005280AD8064B03EB18
:100A00008000006B30B1032903D80844007DC0B2D8
:100A100070470020704700BFF4540100052831D80A
:100A2000DFE800F007030505051F1D292CD800206D
:100A3000704716291FD9A1F10C03012B2AD9A1F166
:100A40001703032B26D9A1F11D03022B24D9A1F1F1
:100A50001B03012B22D9073902298CBF0520042052
:100A600070470129E3D90429E1D0023901298CBF5B
:100A70000520032070470A48C840C04310F0010019
:100A8000D9D17047052070471E3901298CBF052038
:100A900001207047012070470220704703207047F3
:100AA0007FCC7F0038B505460C46FFF7B7FF052819
:100AB0000FD004EB451101F1805101F5304189005F
:100AC0000B6802F0070223F0070313430B600020BA
:100AD00038BD014838BD00BF0100001038B50546DB
:100AE0000C46FFF79BFF052816D0012801D90428E2
:100AF00010D104EB451101F1805101F5304189001D
:100B00000B68D20023F0180302F018021A430A609F
:100B1000002038BD014838BD014838BD0200001032
:100B20000100001038B505460C46FFF777FF052891
:100B300016D010F0FB0001D00A4838BD04EB451177
:100B400001F1805101F5304189000B681AB143F081
:100B500020030B6038BD23F020030B60104638BD26
:100B6000014838BD020000100100001038B50546EC
:100B70000C46FFF753FF052814D0022814D004EBCD
:100B8000451101F1805101F5304189000B6822B116
:100B900043F040030B60002038BD23F040030B609E
:100BA000104638BD014838BD014838BD010000106D
:100BB0000200001038B505460C46FFF72FFF052848
:100BC00016D010F0FB0001D00A4838BD04EB4511E7
:100BD00001F1805101F5304189000B681AB143F4ED
:100BE00000730B6038BD23F400730B60104638BDF2
:100BF000014838BD020000100100001038B505465C
:100C00000C46FFF70BFF052818D0012801D904284E
:100C100012D104EB451101F1805101F530418900F9
:100C20000B6822B143F480630B60002038BD23F4CD
:100C300080630B60104638BD014838BD014838BD9F
:100C4000020000100100001038B505460C46FFF701
:100C5000E5FE052816D001280DD104EB451101F160
:100C6000805101F5304189000B6832B943F08003AF
:100C70000B60104638BD044838BD23F080030B607C
:100C8000002038BD014838BD0200001001000010EE
:100C900038B504460D46FFF7C1FE052811D04CB902
:100CA0001A2D07D108490B6832B923F480330B6041
:100CB000104638BD054838BD43F480330B602046EC
:100CC00038BD034838BD00BF68C0024002000010B4
:100CD0000100001038B505460C46FFF79FFE0528B9
:100CE00018D0012801D0042812D104EB451101F1DC
:100CF000805101F5304189000B6822B943F48073BB
:100D00000B60104638BD23F480730B60002038BDA3
:100D1000014838BD014838BD020000100100001034
:100D200038B505460C46FFF779FE052816D003288E
:100D30000DD104EB451101F1805101F530418900DD
:100D40000B6832B943F480730B60104638BD044819
:100D500038BD23F480730B60002038BD014838BDD6
:100D6000020000100100001070B505460E46FFF7A6
:100D700055FE05281ED0032817D106EB451303F1B5
:100D8000805303F53043012A4FEA83041FD013D365
:100D9000022A0CD1314628460122FFF7C1FF236801
:100DA000002043F40073236070BD0B4870BD4FF00A
:100DB000FF3070BD094870BD314628460122FFF75B
:100DC000AFFF2368002023F40073236070BD314619
:100DD00028460022F3E700BF0200001001000010C7
:100DE00070B504460020FFF765FB03460E4D204614
:100DF000A5FB03239D090EF07DF806464FF0807099
:100E0000B0FBF5F00EF076F8014630460EF086FAAB
:100E100000B1FEE7054A04FB05F31168013B41F010
:100E200004011160536070BDD34D621010E000E00A
:100E3000034670B50F4D0846A5FB03230C469D09DC
:100E40000EF058F806464FF08070B0FBF5F00EF04B
:100E500051F8014630460EF061FA00B1FEE7064A4D
:100E600004FB05F31168013B21F00401116053609C
:100E700070BD00BFD34D621010E000E0044A0128AD
:100E800013680CBF43F0010323F0010313607047A4
:100E900010E000E0044A012813680CBF43F002038D
:100EA00023F002031360704710E000E0014B9868E4
:100EB000704700BF10E000E0024A136823F480335B
:100EC0001360704710E000E00123026803FA01F0AC
:100ED0001040C0B2003018BF0120704701230268E3
:100EE000081D03FA00F01040C0B2003018BF012006
:100EF000704700BF012303FA01F10160704700BF92
:100F0000012304318B400360704700BF10B1002300
:100F10004B70704701230B704B607047B0F1402F4E
:100F200070B504460D46164648D02C4B98424AD020
:100F30002B4B98424CD02B4B984239D00023216F39
:100F400021F003012167226F2267A3602361E36020
:100F5000636843F002036360636823F00203636025
:100F600045B933787568A3B9013DE5604FF0FF33AB
:100F7000236070BD236F23F00C0323677378012B6C
:100F8000F4D1A36A43F00403A3624FF0FF3323605C
:100F900070BD0120FFF78EFA0023134AA0FB050164
:100FA0000EF05CFA4FF0FF330138E060236070BD53
:100FB00001214FF40000FFF799FABFE70121022059
:100FC000FFF794FABAE701210420FFF78FFAB5E79B
:100FD00001214FF48000FFF789FAAFE7008000405D
:100FE000000009400040094040420F000021B0F1DC
:100FF000402F41600ED00A4B98420ED0094B9842C8
:1010000003D0094B984200D0704700214FF4800074
:10101000FFF76CBA0220FFF769BA0420FFF766BA3F
:101020000080004000000940004009404368012959
:101030000CBF43F0010323F001034360704700BF7E
:10104000436843F002034360436823F002034360B4
:10105000704700BF70B40C78032C3DD8DFE804F073
:10106000393633028B6843620725620013194469DD
:101070009D4024EA050444614C7824B1012445696B
:101080009C402C434461CC782CB1012445691E1945
:10109000B4402C4344618C782CB10124456902335F
:1010A0009C402C4344610324C36B0432944023EAE4
:1010B0000403C3630B79C16B03F0030393400B4339
:1010C000C36370BC70478B680362CDE78B68C361F4
:1010D000CAE78B688361C7E7FEE700BF03290BD827
:1010E000DFE801F0080604024262704702627047BE
:1010F000C261704782617047FEE700BF30B40724C9
:101100000B78826A03EB43039C4022EA040282626A
:101110004A7822B10122846A9A40224382628A7804
:101120002AB10122846A9D18AA4022438262CA78A9
:1011300032B10122816A023302FA03F30B43836264
:1011400030BC704709B1006B7047C06A704700BF80
:1011500010B54FF0FF314FF04024002284B00E4B09
:101160002160039001A920468DF808200193FFF724
:1011700071FF2246636843F0010363601368DB0775
:10118000FCD5536843F002035360536823F0020315
:10119000536004B010BD00BF000101014FF47A7329
:1011A00003FB00F0FFF7D4BF30B40025F2B1436970
:1011B0009B0658BF4FF0FF3301D505E0B3B144693A
:1011C000013BA406FAD58BB10C4614F8103B013A4A
:1011D0000135013103704AB111F8013B013AA142D6
:1011E00005F101050370E1D0002AF5D1284630BC95
:1011F000704700BF2DE9F04FB74B8BB09842814646
:10120000079100F05E8103F50C23984200F02581E0
:1012100003F58043984200F05981B04B984200F0AA
:101220006181AF4B984200F08881079B00241F68C2
:1012300000230120CDE90434FFF73CF90023010924
:101240000207059104920021DDE904AB0022CDF8EC
:1012500020904FF0FF3801269946CDE90012099001
:10126000039306970024069D2A46002350465946BC
:101270000EF0F4F80B46B0F1004F88BF4B1C03F1A1
:10128000FF31024688BF4242B1F5803F3D440AD259
:10129000424508D218460021CDE90001002A54D069
:1012A0009046A14603960134B442DDD1069B661CEC
:1012B0003B440693DDE9043413EB0A0344EB0B04CF
:1012C000102E9A46A346CDD1DDE9003423434A4689
:1012D000DDF8209040F05781804B994500F08C80DC
:1012E0007F4B994500F0AF8099F80C3003F0C003B4
:1012F000079A5279012A00F0888004D3022A40F02C
:10130000878043F00203079A12795AB1032A00F04A
:10131000D580042A00F0CF80022A14BF43F00803CE
:1013200043F01803079A9279012A6C4A08BF43F0E8
:101330000403914503D06A4A914500F08980DBB2ED
:1013400089F80C300BB0BDE8F08FDDF82090A119C2
:10135000DDE900ABA1FB0A2301FB0B330999080966
:1013600006FB00F000210EF079F8642387428CBF61
:10137000381AC01B03FB00F3B3FBF7F7022FABD8FF
:10138000DDE90001554A030A914543EA01631BD098
:10139000534A91453FD099F80C209DF80010DBB2DC
:1013A00042F0800289F80C2089F8043089F8001096
:1013B00099F80C2044EA0613DBB202F07F0289F8A8
:1013C0000C2089F828308FE799F80C209DF8001040
:1013D000DBB242F0800289F80C2089F8043089F8E9
:1013E000001099F80C203301DBB21C4302F07F039C
:1013F00089F80C30C9F82840079A384B52791B7B82
:10140000012A03F0C0037FF478AF43F001037AE7C9
:1014100043F0030377E7D9F80C209DF80010DBB206
:1014200042F08002C9F80C20C9F80430C9F8001055
:10143000D9F80C203301DBB21C4302F07F02C9F85B
:101440000C20C9F82840264BDB6803F0C0034FE7A7
:10145000C9F80C300BB0BDE8F08F01214FF080705F
:10146000FFF744F80722002389F8082089F808309C
:1014700099F81430DA0705D599F8003099F8143046
:10148000DB07F9D4802389F8303099F814309F06AF
:10149000FBD5002389F83030C9F8043089F80C30C6
:1014A000C9F8203089F84C3089F8543089F8503028
:1014B00099F81430B9E643F0380333E743F02803D2
:1014C00030E701210820FFF711F8CBE701214FF0A9
:1014D0000070FFF70BF8C5E700C0004000000140B6
:1014E00000400A4001211020FFF700F800230722E6
:1014F00089F8082089F8083099F81430DE0704D5F7
:101500004B461A781A7DD507FBD4204A8021134612
:1015100082F830101A7D9406FCD5002283F8302022
:101520005A601A731A6283F84C2083F8542083F8A7
:101530005020197D1A741B7E77E64FF480700121CC
:10154000FEF7D4FF00230722C9F80820C9F80830A5
:10155000D9F81430D80704D54B461A685A69D10710
:10156000FBD40B4A01211346D1655A699206FCD57A
:101570000022DA655A60DA601A62DA645A651A651E
:1015800059695A6251E61446039EE0E600000140A4
:1015900000400A40184B984219D0184B98420ED080
:1015A0000021174B90F83020984280F8301017D067
:1015B000144B984217D0144B984218D07047002310
:1015C000C26D1946C3654FF48070FEF78FBF0023CC
:1015D00090F83020194680F830301020FEF786BF92
:1015E0000820FEF783BF4FF08070FEF77FBF4FF0FB
:1015F0000070FEF77BBF00BF0000014000400A40C2
:1016000000C000400080094000C0094000234FF4A2
:10161000E13103220160427103718371704700BFA1
:101620000170704700787047012B1DD070B41546CB
:1016300006460C460020ADB173699B0612D52246C2
:1016400012F8103B013D0130611C337055B111F8A7
:10165000013B013D914200F101003370F6D10C468F
:10166000002DE9D170BC70479EE500BF012B30B45E
:1016700014D06AB3456915F001050CD00A440B4635
:1016800002E04469E40706D5047803F8014B9A4266
:10169000A3EB0105F5D1284630BC70470025BAB14F
:1016A0004369DB0758BF4FF0FF3302D507E0002B3B
:1016B000F1D04469013BE407F9D5002BEBD0037866
:1016C0000135AA4201F8013BEAD1284630BC7047F7
:1016D0001546E0E7037B43F040030373704700BF08
:1016E000062996BF0B4B002353F82130012A0A4AE2
:1016F0000BD090420CBF40F28F3140F20731DB43F8
:1017000042680A4013404360704742681343436095
:10171000704700BF3C55010000000140007DC0B291
:10172000704700BF40F2CF3380681840704700BF59
:10173000007D80F04000C0F380107047CB78022B12
:101740008EBFC1230A4A9B184A7898BF1B7F012A83
:101750000A7808BF43F00403012A8A7808BF43F0DF
:101760000203012A08BF43F008030372704700BF59
:101770003C550100002201238270C2700370437047
:10178000704700BF012A02D00023036270470B7824
:101790004A78012B0CBF022300230F49012A08BFFE
:1017A00043F0040388424FF0000110B44FF01004DE
:1017B00043F00102037B43F0800303730170017166
:1017C000037B03F07F0303730CBF846280F828401F
:1017D000026210BC704700BF00000140036A194359
:1017E000016270470129134B0DD0984217D0124B5C
:1017F00098424FF000030BBFC26D90F83020C365D4
:1018000080F830307047984202D00B4B98420CD091
:1018100090F8303043F0800380F830307047002378
:1018200090F8302080F830307047C36D43F00103EA
:10183000C36570470000014000400A40012907D0FD
:1018400029B990F8243003F03D0380F82430704724
:1018500090F8243043F0020380F82430704700BF32
:1018600090F8243001290CBF43F0010303F03E033C
:1018700080F82430704700BF90F82430C90003F08E
:10188000C70301F0380143F00403194301F03F019D
:1018900080F82410704700BF61B101290CBF0221FC
:1018A0000021037C012A16BF03F0F3030B438B4393
:1018B000037470470121F4E702298EBF0021074B12
:1018C000C918037C98BF91F82010012A16BF03F0B5
:1018D000F3030B438B430374704700BF3C55010077
:1018E000007E7047CB78012B19D000230A78012A9B
:1018F0008A7808BF43F00103012A04D18A7943F0B2
:10190000040380F850204A780AB943F00203DBB29E
:1019100080F84C30037B43F03803037370474B79F6
:101920000A79012B14BF10233023012A04D1044A61
:10193000904208BF43F00803CA7980F85420D5E7E5
:101940000000014090F84C3001290CBF03F0FD036A
:1019500043F0020380F84C30704700BF38B50446AE
:101960005BB1057BEDB205F0EF030373FFF71CFCE1
:10197000237D5A06FCD5257338BDFFF715FC237D62
:101980005B06FCD538BD00BF30B5057B83B002AB2C
:10199000EDB205F0EF0203F8011D027319460122B2
:1019A0000446FFF701FC237D5B06FCD5257303B0DD
:1019B00030BD00BF10B50446FFF7F6FB237D5B0684
:1019C000FCD510BD264B70B5984205460C463BD061
:1019D000244B98423ED0244B984200D070BD012148
:1019E0004FF48010FEF782FDD4E9013122690B43E8
:1019F00021681343E2680B4366699BB202F00F0251
:101A00002B6001206A60FEF755FD731C4FF0020148
:101A10004FF0000209D0541C01FB04F3B0FBF3F3B8
:101A20009E420AD3120292B2C9B22B68DBB22B607B
:101A30002B681A432A60296170BDFF2C02D902313C
:101A40000022E8E72246E6E701214FF40010FEF706
:101A50004DFDC9E701214FF48060FEF747FDC3E764
:101A6000008008400000034000C00A400C4B984230
:101A700006D00C4B98420DD00B4B984205D07047C6
:101A800000214FF40010FEF731BD00214FF480100B
:101A9000FEF72CBD00214FF48060FEF727BD00BF8C
:101AA000008008400000034000C00A40006800F0C9
:101AB0000F00704700230721034A01604261C0E91B
:101AC0000133C0E90333704740420F0043680129E6
:101AD0000CBF43F0020303F00D034360704700BFE7
:101AE000436801290CBF43F0010303F00E03436078
:101AF000704700BF436801290CBF03F0070343F0A0
:101B000008034360704700BF81607047806880B2FF
:101B1000704700BF00232DE9F0470446C068CB6042
:101B20004B604B61430703D5A368E3685F07FBD4B1
:101B300003232362236803F00F03082B09D9002A2B
:101B400040F08A8094468F680122E246D1F800E096
:101B500046E0002A3ED00026012A40F0C3804FF61E
:101B6000FF7CFF270D69E3689A0727D54B68AB42D6
:101B700080F0AF800A68002A00F08480002E7CD1BB
:101B8000D25C0133A2604B60A369DA075DD4E368DD
:101B90005807E8D5CB68AB42E5D28A68A068002A2E
:101BA00068D0002E62D1D054D1E903350133CB6027
:101BB000E3685807EED4E3689A07D7D4CB68AB4202
:101BC00003D34B68AB4280F088800F230020636111
:101BD000BDE8F08796461746D1F808A0D1F800C0B6
:101BE00000200D694FF6FF79A8424FF0FF081CD383
:101BF000CB68AB4261D2E368A369DE0725D4E36812
:101C000058070FD5CB68AB420CD28E68A06856B38C
:101C100022BB0AF8010BD1E903350133CB60E3683D
:101C20005807EFD44868A842E2D2E3689B07E3D59F
:101C30000B68002B36D0002A2ED11CF8013B013056
:101C4000A360A3694860DE07D9D54FF0FF3043F4A5
:101C500000734B61BDE8F08701267DE727F8020B92
:101C60000233CB60CBE7002AFAD1D6E7D052023359
:101C7000CB608CE7002EFAD198E7D25A0233A260EB
:101C80004B6081E71EB90133A7604B607CE70233EC
:101C9000C4F808C04B6077E73EF8023B0230A3600F
:101CA0004860A9E722B90130C4F808804860A3E77A
:101CB0000230C4F8089048609EE74FF480740A68C8
:101CC0004C61002AC6D18A68002A14BF1846002039
:101CD000C0E7CB689D423FF678AF4FF48073002099
:101CE0004B61B7E74FF0FF30B4E700BFC3680B426A
:101CF00014BF012000207047012A06D0C943436960
:101D000001F00F0119404161704743691943416176
:101D1000704700BF83690B4214BF01200020704749
:101D200080697047C3690B4214BF012000207047CF
:101D300001627047012A06D0C943436A01F00301DA
:101D4000194041627047436A19434162704700BFBE
:101D500030B4144C224600E01A4613688342FBD389
:101D600051685518A84209D041684518AB420CD0BB
:101D700030BC9042036018BF106070474568104641
:101D800029444518AB425160F2D1A468A342EFD078
:101D900018CB90422144C0E9003130BC18BF10601C
:101DA000704700BFB01700102DE9F8430446264DD8
:101DB00001F060F8EE68264235D1002C33D004F1F2
:101DC00008035A071CBF23F0070308335BB3D5F899
:101DD0001090994527D32C681B4F03E0226822B14D
:101DE0002746144661689942F8D3AA68A2421AD0DD
:101DF0003868CA1A00F108082068102A38601BD811
:101E00006A69A9EB0103934238BF6B612B61002320
:101E10003143C4E9003101F0B1F8B8F1000F04D04A
:101E20004046BDE8F88301F0A9F84FF0000809F03A
:101E300097FF4046BDE8F883E01842606360FFF713
:101E400087FF6168DCE700BFB017001050B138B5FC
:101E50000F4D50F8043CEA68134202D050F8081CB9
:101E600009B138BD7047044623EA020340F8043C38
:101E700001F000F82A6954F8043CA4F10800134466
:101E80002B61FFF765FFBDE8384001F077B800BF70
:101E9000B0170010014B1869704700BFB017001051
:101EA000014B5869704700BFB01700104368F0B588
:101EB00093B3002426462746DFF870C00830DCF8CC
:101EC000085050F8082C0830D11D12F0070F21F0EF
:101ED000070102D013440A465B1A1344083B23F05F
:101EE0000701A1EB020E0CB9CCE90024C1E900778F
:101EF000C2E9001E05B12A6050F8043C0D46764444
:101F00000134002BDDD14FF00043CCF80810CCE9B0
:101F10000466CCF80C30F0BD1E464FF00043DFF8ED
:101F20000CC0CCE90466CCF80C30F0BDB017001042
:101F300038B5036C044673B115461A4685B98068F6
:101F40000DF0BCFEA368216C62680B449342A36051
:101F500001D32368A360A36B00200133A36338BDC2
:101F6000C0680DF0ABFE226CE36852422168134456
:101F70008B42E36002D263681A44E260022DEAD128
:101F8000A36B002BE7D0A36B013BA363E3E700BF88
:101F9000026C72B10B46C16810B444681144A1428E
:101FA000C16028BF016810BC28BFC16018460DF091
:101FB00085BE704738B5044600F054FBA36C002B77
:101FC00014DD636A93B104F1240507E0A36C013BBF
:101FD000A364A36C002B09DD636A3BB1284601F0C2
:101FE0000DF90028F2D001F09BF9EFE74FF0FF3335
:101FF000A36400F049FB00F035FB636C002B14DD9B
:10200000236993B104F1100507E0636C013B63643D
:10201000636C002B09DD23693BB1284601F0EEF823
:102020000028F2D001F07CF9EFE74FF0FF33636452
:10203000BDE8384000F028BB70B504460E464FF0AE
:10204000FF3500F00FFBD4E90F23002102FB03F260
:102050002068D31A03440244A16362606564C4E942
:102060000203A56476B923691BB900F00DFB0120BA
:1020700070BD04F1100001F0C1F80128F5D100F0A5
:10208000D9FAF2E704F1100000F056FA04F1240046
:1020900000F052FA00F0F8FA012070BD70B5064663
:1020A0000D4651B100FB01F04D30FFF77DFE0446B7
:1020B00088B100F14C03036005E04C20FFF774FE8B
:1020C000044640B12460C4E90F6501212046FFF7B2
:1020D000B3FF204670BD0024FBE700BF10B502220D
:1020E0000C460021FFF7DAFF00B1846310BD00BF8A
:1020F0002DE9F043002685B00446894601921F462B
:10210000B04625E000F0C0FA00F0B4FE00F0AAFAF4
:10211000636C013308BFC4F84480A36C013308BF6B
:10212000C4F8488000F0B0FA01A902A801F0CAF88A
:10213000002842D100F096FAA26BE36B9A4217D0C6
:1021400000F0A2FA2046FFF735FF00F017FF012646
:1021500000F088FAA26BE36B9A421AD3022F18D0D0
:10216000019D25B3002ECDD102A801F0A1F8C9E749
:1021700000F08AFA019904F1100000F0EDFF20460A
:10218000FFF718FF00F0FAFE0028E0D100F052FA45
:10219000DDE73A4649462046FFF7CAFE636AABB917
:1021A000D0B900F071FA012005B0BDE8F08300F06D
:1021B0006BFA284605B0BDE8F0832046FFF7FAFE2B
:1021C00000F0DCFE002005B0BDE8F08304F124003F
:1021D00001F014F80128E4D100F02CFAE1E700BF87
:1021E0002DE9F041044690461D460F4600F02EFAB8
:1021F000A26BE36B06469A4208D3022D06D0002557
:10220000304600F03DFA2846BDE8F0812A463946BE
:102210002046FFF78DFEA36C013309D00125A36C86
:1022200030462B44A36400F02BFA2846BDE8F08129
:10223000636A33B90125304600F022FA2846BDE82A
:10224000F08104F1240000F0D9FF0028F2D0B8F1A9
:10225000000FEFD00125C8F80050D1E7F8B50446CB
:102260000F4600F0F3F9A26BE36B06469A420ED2DA
:10227000A36B0133A363A36C01330ED00125A36CC0
:102280002B44A364304600F0FBF92846F8BD002536
:10229000304600F0F5F92846F8BD636A2BB90125F0
:1022A000304600F0EDF92846F8BD04F1240000F0B6
:1022B000A5FF0028F3D0002FF1D001253D60E1E714
:1022C0002DE9F041044684B00F460192984600F093
:1022D000C9F9A56B002D42D1019B002B58D002A853
:1022E00000F0E6FF04F1240613E000F0CDF90199B7
:1022F000304600F031FF2046FFF75CFE00F03EFE66
:10230000002842D000F0AEF9A36B43BB019B002B29
:102310003ED000F0B9F900F0ADFD00F0A3F9636C18
:10232000013308BF6564A36C013308BFA56400F0E6
:10233000ABF901A902A800F0C5FF78BB00F092F943
:10234000A36B002BD1D000F09FF92046FFF732FE9F
:1023500000F014FE00F086F9A36B002BD6D03946AE
:102360002046E568FFF714FEB8F1000F1FD1A36BFC
:102370002269013BA363EAB104F1100000F03EFFC3
:10238000012817D100F056F914E000F053F9B9E72D
:1023900000F07AF9002004B0BDE8F0812046FFF794
:1023A00009FE00F0EBFD002004B0BDE8F081636A97
:1023B000E5602BB900F068F9012004B0BDE8F081B8
:1023C00004F1240000F01AFF0028F3D0DAE700BF80
:1023D000F8B505460C46174600F038F90646A86BD6
:1023E00028B90446304600F04BF92046F8BD214696
:1023F0002846FFF7CDFDAB6B013BAB636B6C013344
:1024000008D001246B6C304623446B6400F038F92B
:102410002046F8BD2B692BB90124304600F030F975
:102420002046F8BD05F1100000F0E8FE0028F3D0CA
:10243000002FF1D001243C60D4E700BFF8B5054679
:102440000C4600F003F90646A86B28B9044630464E
:1024500000F016F92046F8BD21460124EF68284611
:10246000FFF796FD3046EF6000F00AF92046F8BD10
:1024700010B5044600F0F6F8A46B00F005F920460C
:1024800010BD00BF38B5054600F0ECF8A86BEC6B4A
:10249000241A00F0F9F8204638BD00BF806B704761
:1024A00010B4094C0022234659680833884205D0ED
:1024B00001320A2AF8D110BCFFF7C8BC002344F847
:1024C000323010BCFFF7C2BC30330010806BB0FA62
:1024D00080F04009704700BF836BC06BC01AB0FA30
:1024E00080F04009704700BF002330B4074A52F81B
:1024F000334002EBC30524B101330A2BF7D130BCC2
:102500007047686042F8331030BC704730330010B9
:1025100010B4084C0022234659680833814204D085
:1025200001320A2AF8D110BC7047002344F8323037
:1025300010BC7047303300104FF0FF31002200F123
:1025400008038160C0E90023C0E90333704700BF7E
:1025500000230361704700BFD0E9002310B49C68DA
:1025600001328C609C684B606160996010BC0861AE
:102570000260704730B40D686B1C11D000F1080286
:1025800000E01A4653681C68AC42FAD904684B60F4
:10259000013499608A6051600861046030BC704702
:1025A00002695368F2E700BF026910B4D0E9013153
:1025B00054689960816884424B6008BF5160002173
:1025C00013680161581E106010BC704764480068B1
:1025D000006880F3088862B661B6BFF34F8FBFF31F
:1025E0006F8F00DF00BF00BF10B44FF08074064B48
:1025F00040F8044C40F8081C40F8202C40F80C3CF3
:1026000010BC4038704700BF5D260000074B1968BA
:102610000868B0E8F00F80F30988BFF36F8F4FF0C0
:10262000000080F311884EF00D0E7047D017001097
:10263000704700BF4FF08052034B1A60BFF34F8FBB
:10264000BFF36F8F704700BF04ED00E0EFF3118020
:102650004FF0280181F311887047002008B5FFF77B
:10266000F5FFFEE708B5FFF7F1FF044A13680133F1
:102670001360BFF34F8FBFF36F8F08BD10000010C2
:1026800080F31188704700BF034B18680138186049
:1026900000B17047FFF7F4BF10000010EFF309809E
:1026A000BFF36F8F0D4B1A6820E9F00F10602DE912
:1026B00008404FF0280080F3118800F043FD4FF0F0
:1026C000000080F31188BDE8084019680868B0E888
:1026D000F00F80F30988BFF36F8F7047D017001099
:1026E00008B5FFF7B3FF00F0E1FB18B14FF08052DF
:1026F000034B1A600020BDE80840FFF7C1BF00BFD0
:1027000004ED00E00721064B064A1B680648A2FBC1
:102710000323064A9B09013B03601160704700BF19
:1027200000000010D34D621014E000E010E000E063
:1027300008B5094B1A6842F478021A601A6842F028
:1027400078421A60FFF7DEFF0022044B1A60FFF7A1
:102750003DFFFFF77BFFFEE720ED00E010000010DB
:1027600008ED00E010B51820FFF71EFB044620B16D
:10277000002340F8043BFFF7DFFE204610BD00BFFA
:102780002DE9F04106461F460D46904600F072FBCB
:10279000346867B92C420DD0B8F1000F0CD024EA90
:1027A0000505356000F0EAFB2046BDE8F08135EA1A
:1027B0000403F1D0069B23B900F0E0FB2046BDE8FE
:1027C000F081B8F1000F0CBF00214FF080718FB97C
:1027D0002943069A301D00F0E5FC00F0CFFBD8B18C
:1027E00000F0A4FD8301044607D524F07F44204671
:1027F000BDE8F08141F08061EAE7FFF733FF34681C
:102800006FB9254205D0B8F1000F02D024EA0505C2
:102810003560FFF739FFE8E7FFF70CFFE0E735EA3F
:102820000403F6D1EFE700BF70B506460C46FFF78C
:1028300019FF356825EA04043460FFF725FF2846B0
:1028400070BD00BF10B50446FFF700FF2468FFF716
:1028500017FF204610BD00BF2DE9F04106460C468B
:1028600000F008FB3168306906F10C08214380450F
:10287000316023D000270BE03DB1DB0141F0007156
:1028800048BF174300F0EAFC3168A04520460DD050
:10289000D0E9003423F07F4213F0806F02EA010593
:1028A000EAD0AA42E9D0A0452046F1D1FF43394001
:1028B000316000F063FB3068BDE8F0814FF0FF3716
:1028C000F5E700BF2DE9F0418846054616461F464C
:1028D00000F0D0FA41462C6828460C43FFF7BCFFB5
:1028E00004EA0601B14219D02FB92C6800F046FB6A
:1028F0002046BDE8F0813A4646F0A061281D00F070
:1029000051FC00F03BFBF0B100F010FD83010446E8
:102910000DD524F07F442046BDE8F0812B6823EAE2
:102920000101296000F02AFB2046BDE8F081FFF795
:1029300099FE2C6836EA040304BF24EA06062E60DA
:10294000FFF7A2FEE5E7FFF775FE00F0EFFC83015D
:102950000446DED4EBE700BF10B5044600F08AFA67
:1029600063683BB14FF00071206900F077FC636849
:10297000002BF7D12046FFF769FABDE8104000F0C0
:10298000FDBA00BFFFF768BF38B504460D46FFF734
:1029900069FE236823EA05032360BDE83840FFF79A
:1029A00073BE00BF034B1A68D268D26852685A607F
:1029B000704700BFC817001038B50C4CA268E36818
:1029C000506083420AD805462068A1680431FFF7A9
:1029D000D1FD6368AB4288BF656038BD2069A168DE
:1029E000BDE838400431FFF7C5BD00BFC81700106F
:1029F00000230C4A53619369B3FA83F3DBB2C3F14A
:102A00001F0303EB83039B00D0180346016A2433A2
:102A100049689942016208BF4968CB6808BF0162F2
:102A200093607047C81700102DE9F84F0C9F80463F
:102A30008A46154699460A9E002F00F0AF80442032
:102A4000FFF7B2F90446002800F0B28005F1804299
:102A5000013A07EB820222F0070507630AF1FF3310
:102A60000AF1070100F1340213F8010F02F8010B1B
:102A7000187808B18B42F7D1042E4FF00007B34607
:102A800028BF4FF0040B04F1040A504684F83B7051
:102A9000C4F82CB0FFF75CFD04F11800FFF758FDF7
:102AA000CBF10503A361E763246184F8407064629D
:102AB0004A4641462846FFF797FD0B9B206003B12D
:102AC0001C603E4DFFF7CEFDD5F880300133C5F8D0
:102AD0008030AB684BB3D5F8E83003B305F11C0880
:102AE0000127E36AAC6907FA03F203EB830308EBFF
:102AF0008300D5F8EC3022433B445146C5F8EC3016
:102B0000AA61FFF729FDFFF7BFFDD5F8E8301BB13B
:102B1000AB68DB6AB3423CD33846BDE8F88FAB689C
:102B2000DB6AB34298BFAC60D8E7AC60D5F88030C0
:102B300005F11C08012BD3D14046FFF7FDFC05F140
:102B40003000FFF7F9FC05F14400FFF7F5FC05F153
:102B50005800FFF7F1FC05F1840905F16C00FFF75F
:102B6000EBFC05F198074846FFF7E6FC3846FFF70F
:102B7000E3FC05F1AC00FFF7DFFC05F1C000FFF757
:102B8000DBFC05F1D400FFF7D7FCC5F800902F61FE
:102B9000A6E7FFF74FFD3846BDE8F88F9000FFF736
:102BA00003F9074600287FF44AAF4FF0FF30B4E73F
:102BB0003846FFF74BF94FF0FF30AEE7C81700106B
:102BC00070B50546264CFFF74DFD002D3CD02E1D5F
:102BD0003046FFF7E9FC30B9EA6A02EB820304EB06
:102BE0008303DB693BB3AB6A1BB105F11800FFF748
:102BF000DBFC31461B48FFF7AFFCD4F8F020D4F8DB
:102C0000EC3001320133C4F8EC30C4F8F020FFF7A7
:102C10003BFDD4F8E830B3B1A368AB4216D0FFF760
:102C200021FD23681B68ABB94FF0FF336360BDE83B
:102C30007040FFF729BD0121A36901FA02F223EADE
:102C40000202A261CFE770BDA568C0E7BDE8704091
:102C5000FFF7F0BCFFF7A6FEBDE87040FFF714BD1C
:102C6000C81700108818001070B50446294DFFF7EA
:102C7000F9FC002C3FD0261D3046FFF795FC30B9FB
:102C8000E26A02EB820305EB8303DB69F3B1A36A1B
:102C90001BB104F11800FFF787FC31461E48FFF70F
:102CA0005BFCFFF7F1FCAB68A342D5F8E83015D028
:102CB00003B970BDFFF7D6FC2B681B68EBB94FF06A
:102CC000FF336B60BDE87040FFF7DEBC0121AB69EC
:102CD00001FA02F223EA0202AA61D8E793B9D5F811
:102CE0008020D5F8D41091420AD0D5F8F4306BB1D9
:102CF00001236B6170BDAC68BDE7FFF753FEE1E7F0
:102D0000AB6070BDBDE87040FFF794BCBDE870409B
:102D10006EE600BFC81700109C18001088B1F8B507
:102D2000194DAB6883420BD00446FFF79BFC6269E8
:102D300005F1D4039A4205D0BDE8F840FFF7A4BCE2
:102D4000F8BD7047A36A05F1AC029342F4D0002BA2
:102D5000F2D1261D3046FFF727FC0123E06AAF6958
:102D600005F11C02834000EB80003B4302EB800036
:102D70003146AB61FFF7F0FBAB68E26ADB6A9A426F
:102D8000DAD3FFF757FCD7E7C81700102DE9F04159
:102D90000546FFF75BFC1C4E6A6906F1D4039A42B4
:102DA000074606D000243846FFF76AFC2046BDE8F7
:102DB000F081AC6A06F1AC008442F3D0002CF1D172
:102DC000D6F8F430DBB9B368EC6ADB6A05F10408C5
:102DD0009C42404634BF00240124FFF7E5FB012359
:102DE000E86AB569834006F11C0200EB80002B43C2
:102DF000414602EB8000B361FFF7AEFBD3E705F17C
:102E00001801FFF7A9FBCEE7C817001030B5002462
:102E100085B05022CDE90244CDE9004423460B4958
:102E20000B48FFF701FE012801D005B030BD054673
:102E3000FFF70CFC4FF0FF32064B5A60C3F8E85026
:102E4000DC6005B0BDE83040FFF772BC60550100A2
:102E5000E9300000C817001008B5FFF7F7FB0022A3
:102E6000034BC3F8E820BDE80840FFF7E1BB00BF13
:102E7000C8170010034AD2F8F4300133C2F8F43016
:102E8000704700BFC8170010014BD868704700BFDB
:102E9000C8170010014BD868704700BFC817001052
:102EA000014BD3F880007047C81700102DE9F04798
:102EB000304CD4F8F430002B4FD1E3680133E36099
:102EC000E7687FB92368226922602361D4F8F8306B
:102ED0000133C4F8F83023681B68002B44D14FF04D
:102EE000FF33636063680026BB422FD84FF00109AF
:102EF000DFF8848023E02368DB68DD686B6805F118
:102F0000040A9F4233D35046FFF74EFBAB6A05F1EC
:102F100018000BB1FFF748FBE86AA26909FA00F351
:102F200000EB80001343514608EB8000A361FFF7DC
:102F300013FBA368EA6ADB6A9A4228BF012623686A
:102F40001B68002BD7D14FF0FF3363606369002B00
:102F50000CBF30460120BDE8F087D4F8FC300026D5
:102F60000133C4F8FC30F1E7FFF71CFDBAE76360FA
:102F7000ECE700BFC8170010E41700102DE9F0417E
:102F80002B4CFFF76FFBD4F8F430013BC4F8F4305E
:102F9000D4F8F430002B41D1D4F88030002B3DD050
:102FA000012604F11C071EE0D4F8B830DD6805F1F5
:102FB000040805F11800FFF7F7FA4046FFF7F4FAA6
:102FC000E86AA26906FA00F300EB80001343414669
:102FD00007EB8000A361FFF7BFFAA368EA6ADB6A28
:102FE0009A4228BF6661D4F8AC30002BDCD1D4F80B
:102FF000FC3083B1D4F8FC306BB10125FFF756FFEC
:1030000000B16561D4F8FC30013BC4F8FC30D4F861
:10301000FC30002BF2D16469012C05D00024FFF7AD
:1030200033FB2046BDE8F081FFF704FBF7E700BF64
:10303000C817001038B5184C0368D4F8F4205D1890
:1030400002F10102C4F8F420E2682CBF0121002142
:103050009342056004D921B9FFF790FFB8B138BD9C
:1030600009B9AA42F8D2A0680430FFF79DFA38B92E
:103070000122A168A369C96A8A4023EA0203A36105
:103080002846FFF799FCFFF779FF0028E7D1BDE854
:103090003840FFF7CFBA00BFC817001008B9FFF7D4
:1030A000C9BA38B50F4CD4F8F4300133C4F8F43051
:1030B000E568A3680544181DFFF776FA38B90122C0
:1030C000A168A369C96A8A4023EA0203A36128466A
:1030D000FFF772FCFFF752FF18B9BDE83840FFF761
:1030E000A9BA38BDC817001008B5154CD4F8F0308F
:1030F000002BFBD0D4F8F430D4F8C0500133C4F81E
:10310000F430FFF73BFF002DF0D0FFF7ABFAD4F817
:10311000CC30DD68281DFFF747FAD4F88030013B3A
:10312000C4F88030D4F8F030013BC4F8F030FFF739
:10313000ABFA286BFEF78AFE2846FEF787FED5E736
:10314000C8170010034BD3F8F42002B950E4012251
:103150005A617047C817001038B5104C0D46A16869
:103160001831FFF707FAA0680430FFF71DFA38B9E5
:103170000122A168A369C96A8A4023EA0203A36104
:103180006B1C04D0E0682844BDE8384014E4A16812
:1031900003480431BDE83840FFF7DEB9C817001016
:1031A0009C18001038B5134C41F00041A568A36885
:1031B000A96103F118011546FFF7CEF9A0680430A4
:1031C000FFF7F2F938B90122A168A369C96A8A40F8
:1031D00023EA0203A3616B1C05D0E0682844BDE824
:1031E0003840FFF7E9BBA16803480431BDE8384027
:1031F000FFF7B2B9C81700109C180010F8B5C368E3
:10320000154CDD6805F118063046FFF7CDF9D4F806
:10321000F430DBB92E1D3046FFF7C6F90123E86A0A
:10322000A769834004F11C0200EB80003B43314658
:1032300002EB8000A361FFF78FF9A368EA6ADB6AFB
:103240009A428ABF012000206061F8BD314604F136
:10325000AC00FFF781F9F0E7C8170010F8B50125B9
:10326000C66841F000410160371DFFF79DF90F4C22
:103270003846FFF799F9F36AD4F818C005FA03F253
:1032800004F11C0003EB830300EB830042EA0C0211
:103290003946A261FFF760F9A368F26ADB6A9A42D5
:1032A00086BF656128460020F8BD00BFC817001022
:1032B000034BD3F8F820DB68C0E90023704700BF58
:1032C000C8170010F8B50D460446FFF7CBF928687B
:1032D000124B421CD9681CD0D4E90072D3F8F860B4
:1032E000B74201D091420FD28E1AB0420CD9521A75
:1032F00002442A600025D3F8F810DB68C4E9001303
:10330000FFF7C2F92846F8BD0125FFF7BDF92846A9
:10331000F8BD0025FFF7B8F92846F8BDC81700101A
:103320000122014B5A617047C8170010044A916886
:1033300093689268DB6A8869C3F1050393617047FB
:10334000C8170010F8B5204C06460D46FFF78AF95D
:10335000A368DB6B23B90127A36883F84070BDB96C
:10336000FFF792F9FFF77EF9A368DD6B25B15EB92F
:10337000A268D36B013BD3630022A36883F840208B
:10338000FFF782F92846F8BD0022A368DA63F3E765
:10339000A0680430FFF708F930B9A268A369D26ABF
:1033A000974023EA0707A7616B1C06D0E068284412
:1033B000FFF702FBFFF73EF9D2E7A16803480431AB
:1033C000FFF7CAF8F6E700BFC81700109C180010F6
:1033D0002DE9F843284C1E4680460F461546FFF758
:1033E00041F9A36893F84030022B0AD04FF001094D
:1033F000A268D36B23EA0803D363A36883F84090E1
:10340000DEB9FFF741F9FFF72DF915B1A368DB6BC2
:103410002B60A36893F84030012B24D00125A368CA
:10342000D96B21EA0701D9630022A36883F8402001
:10343000FFF72AF92846BDE8F883A0680430FFF7B3
:10344000B3F838B9A268A369D26A09FA02F923EA83
:103450000903A361731C08D0E0683044FFF7ACFA9D
:10346000FFF7E8F8CDE70025DEE7A168034804315F
:10347000FFF772F8F4E700BFC81700109C1800109F
:10348000F8B51C4606460F461546FFF7EBF80CB19B
:10349000F36B2360022396F840406A1E86F84030A2
:1034A000E4B2032A06D8DFE802F0300C0402022C52
:1034B0002FD0F763012C0AD00124FFF7E5F820464E
:1034C000F8BDF36B012C03F10103F363F4D1371D55
:1034D000114D3846FFF768F8F06AD5F818C005F1C5
:1034E0001C0204FA00F300EB800043EA0C0302EB39
:1034F00080003946AB61FFF72FF8AB68F26ADB6AF0
:103500009A42D9D9FFF796F8D7E7F36B1F43F763D1
:10351000D0E70024D1E700BFC81700102DE9F04123
:103520001D46044688461646FFF790F807460DB13B
:10353000E36B2B60022394F84050721E84F84030F5
:10354000EDB2032A07D8DFE802F02F0F0402022DA4
:1035500043D0C4F83C80012D0CD001243846FFF73D
:103560008FF82046BDE8F081E36B012D03F10103E4
:10357000E363F2D11A4ED6F8F430D3B104F1180156
:1035800006F1AC00FEF7E8FFB368E26ADB6A9A4234
:10359000E3D9069B002BE0D0012438461C60FFF7DE
:1035A0006FF82046BDE8F081E36B43EA0803E3636C
:1035B000D1E704F104084046FEF7F6FFE06AB2697D
:1035C000854006F11C0300EB80001543414603EBE8
:1035D0008000B561FEF7C0FFD6E70024BEE700BF5C
:1035E000C81700102DE9F84304460E46FFF72EF8E1
:1035F000022394F8405084F84030E36BEDB201337D
:10360000012D0746E36304D03846BDE8F843FFF7D1
:1036100037B8DFF86080D8F8F430A3B104F11801AE
:1036200008F1AC00FEF798FFD8F80830E26ADB6AD0
:103630009A42E9D9002EE7D0012338463360BDE82D
:10364000F843FFF71DB804F104094846FEF7ACFF44
:10365000E06AD8F81820854008F11C0300EB8000D0
:103660001543494603EB8000C8F81850FEF774FF75
:10367000DAE700BFC817001038B578B10446FEF786
:10368000F1FF94F84030022B05BF002301250025EF
:1036900084F84030FEF7F8FF284638BD014B9C689F
:1036A000EDE700BFC817001070B5012504460E46AF
:1036B000C37B807B05FA03F1FDF71CF8617C207C5D
:1036C00005FA01F1FDF716F8FEF7CCFF3146206848
:1036D000FEF71AFAFEF7D8FF01212068FEF706FB75
:1036E0000028F9D010212068FEF700FB0128F3D054
:1036F0000121E37BA07B9940BDE87040FCF7F0BF5F
:103700002DE9F041877DD40812F00705C1F17F0152
:1037100047F0010607F0020C00EBC41421D00C4462
:1037200094F8178003FA05FE4EEA080E84F817E0B5
:10373000BCF1000F1FD10832C2F3C40200EBC21269
:1037400086751144CA7DC5F108052B411343CB751D
:10375000B30754BF46F0010646F005068675BDE87E
:10376000F0812144CB75BCF1000F07D047F005076D
:103770008775BDE8F08147F00506DCE78675BDE892
:10378000F08100BF2DE9F04704464FF0000900F139
:103790009708A9F15001C9B22046FFF785FF102113
:1037A0002046FFF781FF042120460126FFF77CFF1A
:1037B0004FEAC91707F1170525444744A37D5A0767
:1037C00034D4E17BA07B06FA01F115F801ABFCF7DC
:1037D00091FF617C207C06FA01F1FCF781FFFEF786
:1037E00041FF51462068FEF78FF9FEF74DFF01219A
:1037F0002068FEF77BFA0028F9D010212068FEF738
:1038000075FA0128F3D0E17BA07B06FA01F1FCF701
:1038100067FFAF42D2D109F10109B9F1080FB8D160
:10382000A37D23F00303A375BDE8F08723F0040311
:10383000A3754FF00009ACE730B501250446C17B04
:1038400087B02A4605FA01F1807BFCF745FFE17C51
:103850002A4605FA01F1A07CFCF73EFF617C2A466E
:1038600005FA01F1207CFCF737FFE17BA07B05FA2C
:1038700001F1FCF735FFE17CA07C05FA01F1FCF7D2
:103880002FFF617C207C05FA01F1FCF729FF617DA7
:103890002A4605FA01F1207DFCF71EFF617D207D9F
:1038A00005FA01F1FCF71CFFA27A617A207AFDF794
:1038B000F9F8627B217BE07AFDF7F4F86846FEF7C1
:1038C000F9F86368694620680593FEF77BF8294696
:1038D0002068FEF7FBF8E17CA07C05FA01F1FCF71B
:1038E00009FF02200AF06CFAE17CA07C05FA01F1E4
:1038F000FCF7F6FE02200AF063FA2046A221FFF749
:10390000D3FE2046A021FFF7CFFE2046C021FFF7BF
:10391000CBFE20462721FFF7C7FEE17BA07B05FAFF
:1039200001F1FCF7E7FE617C207C05FA01F1FCF770
:10393000E1FEFEF797FE20688121FEF7E5F8FEF72D
:10394000A3FE01212068FEF7D1F90028F9D010214B
:103950002068FEF7CBF90128F3D0FEF783FE07219C
:103960002068FEF7D1F8FEF78FFE01212068FEF7F0
:10397000BDF90028F9D010212068FEF7B7F9012819
:10398000F3D00121E37BA07B9940FCF7A9FE2C2119
:103990002046FFF789FE02200AF012FA2E21204667
:1039A000FFF782FE02200AF00BFA2F212046FFF7D4
:1039B0007BFE02200AF004FA40212046FFF774FE45
:1039C000AF212046FFF770FE002204F1160304F138
:1039D000960103F8012F8B4283F8802083F80021A1
:1039E00083F8802183F8002283F8802283F8002363
:1039F00083F88023EDD1A37D204643F00303A37514
:103A0000FFF7C0FE02200AF0DBF92046A121FFF7F4
:103A10004BFE2046C821FFF747FE07B030BD00BF70
:103A20000123427D007D934011B91946FCF762BE27
:103A30001946FCF755BE00BF00F1160300F19602CF
:103A400003F8011F934283F8801083F8001183F874
:103A5000801183F8001283F8801283F8001383F832
:103A60008013EDD1837D43F001038375704700BF60
:103A7000837DD90703D543F00203837582E670473F
:103A800030B4012501F07F04C2F3C201C4F17F0408
:103A900000EBC1112144CC7D02F007022B40954080
:103AA00024EA050403FA02F21443CC75837D30BC8A
:103AB0009A0754BF43F0010343F005038375704731
:103AC0002DE9F043012502F0070C05FA0CF5ED4352
:103AD0009DF81C70C2F3C20200EBC2166DB2BE4666
:103AE000002420E0032F08BF08F0010E02F07F023F
:103AF000C2F17F02324492F817900EF0010805EAF5
:103B0000090908FA0CF849EA080882F81780827D4A
:103B1000013412F0020F42F0010816BF42F0050214
:103B200080F8168082755FFA84F808EB01029C42E7
:103B3000D2B206D0022FD5D16FEA080E0EF0010ED8
:103B4000D4E7BDE8F08300BF2DE9F0479DF820C021
:103B500001F07F01C1F17F01E64600274FF0010827
:103B600021E0BCF1030F08BF05F0010EC4F3C2054C
:103B700000EBC5150D44EE7D04F0070408FA04FAC5
:103B80000EF0010926EA0A0609FA04F43443EC753A
:103B9000847D013714F0020F44F0010516BF44F094
:103BA000050485758475FDB2AC189F42E4B207D058
:103BB000BCF1020FD5D16FEA050E0EF0010ED5E76C
:103BC000BDE8F0872DE9F04F89B09DF848809DF859
:103BD0004CA042458CBFA2EB0804A8EB020499421A
:103BE00002940C4612D9029ECD1AAE42039540F3C0
:103BF000B080424516D91546A2EB0802D6B2194646
:103C0000424607962346A846770814E0029E5D1AAE
:103C1000AE42039500F384804546144698460A4612
:103C20002B462146A8EB0204E4B2994207944FEADE
:103C3000540780F082805B1ADBB204930123424573
:103C4000069300F28380CDF804A04FF0000ECDF86B
:103C5000148030E0C3F3C20B01F07F0600EBCB1BF6
:103C6000C6F17F040BEB04064FF0010B03F00703D2
:103C7000F47D0BFA03FB24EA0B040CFA03F3234351
:103C8000F375B8F1000F48D045F005058575049B24
:103C9000FF1AFBB25FB2002F05DA069C2144079C95
:103CA000C9B21F197FB20EF1010E02EB0E03059C83
:103CB000DBB2A3424AD85FFA8EF55319BAF1020F6C
:103CC000DBB24CD0BAF1030F04BF05F0010401943C
:103CD000019C857D04F0010CDDE90264B44245F0ED
:103CE000010905F00208B5DB4FF0010BC1F3C20674
:103CF00003F07F03C3F17F0300EBC6141C44E67D91
:103D000001F007030BFA03FB26EA0B060CFA03F398
:103D10003343E375B8F1000FB6D180F81690B6E7DB
:103D200042457FF67FAF1546A2EB0802D6B2194690
:103D300042462346A846079677084FF0FF34CB1A31
:103D4000DBB24245069404937FF67DAF09B0BDE82F
:103D5000F08F154641461A46A0462B4662E7ED43D2
:103D600005F001040194B3E72DE9F043904683B0D8
:103D70009DF82C509DF8289000950C461E46FFF7A4
:103D80009FFE09F1FF3242440095D2B2FFF798FE40
:103D900000954B464246FFF7D7FE711E2144C9B23B
:103DA0000A9503B0BDE8F043FFF7CEBE2DE9F04F12
:103DB00083B09DF830B09DF834A0F3B191468846A9
:103DC0000746564600245D1EEDB201355FFA84FCBD
:103DD00008EB0C01BAF1040F5B464A46384604F181
:103DE0000104C9B204D11CF0010F14BF032602263E
:103DF0000096FFF7A9FEAC42E8D103B0BDE8F08F12
:103E00002DE9F04F83B09DF8308002F00704C4F133
:103E10000805A8454FF0FF0E80F28D80C8F1080517
:103E20004EFA05FECDF804800EFA04FE5FFA8EFB12
:103E300033B36FEA0E0E0E464FEAD20A03EB0109C6
:103E400090F816C04FFA8EFE00EBCA1A5FFA89F995
:103E5000C6F17F045444E57D01361CF0020F2BEAC5
:103E60000507F6B20EEA050545EA07050CBF4CF05A
:103E7000010C4CF0050CB145E575E9D180F816C090
:103E8000019C03EB010EA4EB02095FFA8EFE02EB2C
:103E90000904E4B2E51DA8451BDD0832D2B2002BAF
:103EA000F5D00C464FEAD20C877D00EBCC1CC4F158
:103EB0007F056544EE7D0134F643E4B2EE75BD073F
:103EC00054BF47F0010747F00507A645EFD18775B6
:103ED000DDE7A0452CD9FF26A8EB040406FA04F47C
:103EE000E6B2F4430832D2B2E4B20BB3E443D208F0
:103EF0000B4490F816C04FFA84FE00EBC212DFB2FA
:103F0000C1F17F041444E37D01311CF0020F46EA45
:103F10000305C9B20EEA030363EA05030CBF4CF0C4
:103F2000010C4CF0050C8F42E375E9D180F816C006
:103F300003B0BDE8F08FEDB2019575E72DE9F047CC
:103F400093F801E08846914613F8021B9DF8202063
:103F5000BEF1000F29D0002701F1FF3C5FFA8CFC75
:103F6000C8F196080CF1010CD9B109EB0705ED1069
:103F700008EBC515054403EB0C0613F8014B0AB911
:103F8000E443E4B205F80149847D14F0020F44F0E3
:103F9000010A16BF44F0050480F816A08475B342E8
:103FA000EBD10837FFB2BE45DED8BDE8F08700BFD1
:103FB0002DE9F04F9DB01B929DF89C208246019206
:103FC000269A0B91002A00F0358192F8039092789E
:103FD000CDF81090089209F10702D210D1B292B236
:103FE0001992269A18911279CDF848901492269A2F
:103FF00052791A92C846D146189A0793013AD2B21A
:104000000232D3000F931A9A149B13441693269BE3
:1040100001331393079A12F8013B0792002B00F02B
:10402000DF8014998B42F5D3169A9342F2DA269ADE
:104030005B1A1278DBB2002A40F0E080269A5278B0
:10404000002A40F0DB80089A199902FB01F202FB7A
:1040500003F306339BB210930B99089A8B18802BAD
:1040600000F3BE801898002800F0AC800846DBB250
:10407000002A08BF034619461593019B4FF0080A12
:10408000012B14BFFF2300230E9300230593531E1F
:10409000DBB2119393B20C931B9BC1F17F01083BE0
:1040A0000D934346D0469A4617910D9B03EB0805A6
:1040B000089BEDB2002B52D0109B059A11999A18CB
:1040C000269B9C18139B5E1805F1080305F0070159
:1040D000DB100993C1F108030A93129B1644A8EB65
:1040E00003030B9A0393EB080691171B02930096A8
:1040F00007EB040C019E5FFA8CFC2A464846614699
:1041000014F8013B0EB9DB43DBB2BAF1080F21D939
:10411000029ECCF17F0C09EBC61E049EE644B0451E
:10412000039E43FA06FB15DD069E5FFA8BFB9EF8A5
:1041300017306EB1099E09EBC61E069EF44433414A
:104140009CF817C00A9E0CFA06FC4CEA0303DBB28B
:104150004BEA0303FFF7D4FA009B9C42C8D1BAF1A3
:10416000080F40D9049B43453DDA0E99EA08179C95
:1041700009EBC212A8EB030341FA03F3224415F042
:104180000700D17DDBB20DD005F10802D21009EB9A
:10419000C2122244D27DC0F10804014102FA04F0A7
:1041A0000143C9B2079A0B4312780ABB059B0C9ACC
:1041B00008F1080813449BB205930F9B43457FF415
:1041C00074AFD0460B9B089A01331344079A03F04F
:1041D000FF030B9312F8013B0792002B7FF421AFF2
:1041E0001DB0BDE8F08F079A0E9B1278002ADDD033
:1041F0002A4615994846FFF783FAD7E7269A1A44C4
:104200009279089283B100222699013B881DDBB286
:104210001844053111F8013F1A44884292B2F9D18D
:10422000199B03FB02F39BB21A9A063213449BB20A
:10423000109311E7072212920492914660221A927B
:1042400020221492052201210892024A1991189104
:104250002692CFE668550100437870B5012B0446DD
:104260000D4613D012D3022B0FD182686AB10379A5
:104270000B420AD0867805F0790533408370904769
:1042800021790D4026EA0506A67070BDA268002AB5
:10429000FBD023792B42F8D0A67805F0790533407E
:1042A000A370904723791D4026EA0506A67070BDCD
:1042B00001281BD011D3022807D1002311705070A0
:1042C000936013735380137153820E490B78581CFB
:1042D00001EB830308705A6070470023117053701C
:1042E00093601361137353801371EEE70023117011
:1042F00050709360137353801371536113769376E8
:10430000E3E700BFC818001070B546780346012ED9
:104310000C461BD00ED3022E0BD108785873497867
:104320009973A278DA73E4781C74BDE87040FCF7E6
:10433000B9BB70BD0125087800225873497899737C
:1043400005FA01F1BDE87040FCF7C6B90D46044618
:104350000878002258734978997306FA01F1FCF73E
:10436000BBF9A8780022E073E97821742B7906FA6A
:1043700001F163746B79A374FCF7AEF9A17C607CE6
:1043800006FA01F10022BDE87040FCF7A5B900BFB4
:1043900043783BB1012B04D149B1012908BF027612
:1043A000704770470029FBD10282428270478282A7
:1043B000C28270474378012B02D001D3022B01D176
:1043C00001717047704700BF4378012B02D001D3C1
:1043D000022B01D181607047704700BF42780346CD
:1043E000012A02D001D3022A04D1987820F0790260
:1043F0009A70704700207047014B1878704700BFD3
:10440000140000100A4B03EB4003B3F854001328C8
:1044100009D940F6EB72904204D940F6FF7210467B
:10442000A3F8542070470020A3F85400704700BF41
:10443000C81800102DE9F04F9A4E83B03378002B46
:1044400069D00025DFF86492DFF864820FE03BD387
:10445000022B07D10122217C9348FCF701F90028A7
:1044600040F0288101353378EDB2AB4253D906EBE9
:1044700085035C686378012BE9D1607BFCF7C4F9A4
:10448000A37BE278D840C70748D5D00740F1058123
:10449000237B013BDBB22373002B49D122F00101C6
:1044A000A378E170D10603F0FD0340F16C8143F085
:1044B0000403A37022F01102E27005212046FFF7E9
:1044C000CBFE2323237333E0607BFCF79DF9A37BB2
:1044D000E278D840C00752D4D10700F1C180237BD5
:1044E000013BDBB22373002BBCD1A37822F0010285
:1044F00023F0040343F0020342F00102A370E270D0
:1045000002212046FFF7A8FE3223013523733378BA
:10451000EDB2AB42ABD803B0BDE8F08FD10700F1EC
:104520008780237B013BDBB22373002B00F02F81BC
:10453000E07B677EFCF768F9237C07F0030AD8402C
:1045400010F0010F607C0CBF00270427FCF75CF91A
:10455000A37C47EA0A07D840C30748BF47F00807CB
:10456000FAB294F91A300F2F29D8DFE807F02B5D43
:104570005955592B285D5D282B5955595D2BD3076B
:1045800040F18680237B013BDBB22373002B7FF459
:1045900069AFA37822F00101D00603F0FD03E170BA
:1045A00040F1ED8043F00403A37022F01102E270A9
:1045B00005212046FFF750FE0F23237352E70233F5
:1045C0005BB2A37696F864109208627621B196F8F1
:1045D0006520013286F8652083EAE371227EA1EB33
:1045E000E3719142FFF63EAF012196F8652086F80F
:1045F0006410632A00F2A28096F866200A44D2B2C0
:10460000072A86F8662000F2B680052A40F2D1809B
:10461000052289F800209AE0023B5BB2A376D1E73D
:1046200001335BB2A376CDE7013B5BB2A376C9E76A
:104630006421E38A2173002B3FF47AAF013B9BB2E4
:10464000E382002B7FF474AFA37842F0100243F0B2
:104650000803E270A37008212046FFF7FDFD67E71D
:104660003221638A2173002B3FF4FCAE013B9BB2E5
:104670006382002B7FF4F6AEA37842F0100243F081
:104680000803E270A37020460821FFF7E5FDE9E684
:104690000F22238A22736382E4E62322A38A2273F1
:1046A000E38245E7C81800100040034014000010E2
:1046B0000AD7233CA378217C03F07F03A3704448EE
:1046C000FBF7C8FF277883467F0006EB070ABAF896
:1046D000680009F0BDFF3CA3D3E900230AF022F8EB
:1046E000CDE9000158460AF009FC41460AF05AFC9F
:1046F00009F0C0FF02460B46DDE9000109F05CFE4F
:104700000AF0D2FA638A82B29A428CBFD31A9B1AF9
:10471000192BD4BF00230123AAF86820002B3FF4F3
:10472000A1AEA378374463F07F036282A370204672
:104730008021A7F85420FFF78FFD93E6002289F827
:10474000001086F8652086F8642086F86620A27836
:10475000002B02F09F0242F01001CCBF42F0300269
:1047600042F05002A1702046A2707021FFF774FD44
:104770000023A37676E6072289F80020E7E743F0D6
:104780000503A37011E743F00503A37092E6A37835
:1047900022F0010223F0040343F0020342F001027D
:1047A000A370E27002212046FFF756FD64232373B5
:1047B000BEE6032A8ABF032289F8001089F8002088
:1047C000C5E700BFAFF300800000007B14AEEF3FF1
:1047D0000040034038B5054619B101290C460FD0F9
:1047E00038BD0124C178807804FA01F1FBF778FF25
:1047F0006979287904FA01F1BDE83840FBF77ABFFE
:104800004179007904FA01F1FBF76AFFE978A878A9
:1048100004FA01F1BDE83840FBF76CBF70B50546FE
:10482000012484B01646FFF7D5FFE979A87904FA88
:1048300001F1FBF75FFFE97AA87A04FA01F1FBF7CF
:1048400059FF8C230093009C631E0093002CFAD127
:10485000324621466878FCF7B3F8F2432146D2B2DB
:104860006878FCF7BBF8C8230193019B5A1E01929C
:10487000002BFAD101216B7A287A9940FBF730FF9F
:104880004FF4E1730293029B5A1E0292002BFAD15D
:1048900001216B7A287A9940FBF72CFF0A230393B6
:1048A000039B5A1E0392002BFAD104B070BD00BFC7
:1048B0000123C27B807B934011B91946FBF71ABFD5
:1048C0001946FBF70DBF00BF70B40124C2F3C20547
:1048D000ED01461901F07F0102F0070294407218C1
:1048E00092F9102064B2012B28440CBF144322EA31
:1048F0000404E4B20844047470BC70472DE9F0412C
:104900009DF81860B3B34FF0010C5F1E02F007036F
:104910000CFA03FCFFB24FFA8CFCC2F3C2026FEA3E
:104920000C0EB0460024013700EBC2100BE0032E42
:1049300022D0B8F1010F13D001340EEA0202034471
:10494000A7421A7416D0E5B24B1903F07F03C218C0
:10495000022E127CEBD1ED0702D54FF00008EBE7F9
:104960004CEA02020134D2B20344A7424FF00108DC
:104970001A74E8D1BDE8F08115F00105F0D1A84620
:10498000DAE700BF2DE9F0439DF81C60002B41D011
:104990004FF0010E5F1EFFB2B446002501F07F010B
:1049A000774410E0032E23D0BCF1010F23D003F095
:1049B00007030EFA03F30444013528EA03030C4409
:1049C000AF42237426D05FFA85F902EB0903DBB20C
:1049D000C3F3C204E40100EB04088844022E98F8F3
:1049E0001080DFD119F0010F05D04FF0000CDEE789
:1049F00019F0010CDBD003F007030EFA03F343EACE
:104A0000080304440135DBB20C44AF424FF0010C03
:104A10002374D8D1BDE8F0832DE9F04F85B09DF81F
:104A200038E09DF83C8072458CBFA2EB0E0AAEEBDD
:104A3000020A99420C4611D9A1EB0309CA4540F379
:104A40008880724514D91546A2EB0E02D6B21946DB
:104A5000724623460396AE46740811E0A3EB0109A3
:104A6000CA455FDC754614469E460A462B462146DB
:104A7000AEEB0204E4B2994203944FEA54045DD2CF
:104A80005B1ADBB200930123724502935ED8454660
:104A90000026CDF804902FE0B8F1030F5FD0019FFE
:104AA000BA4579DDC3F3C207FF0100EB070B01F044
:104AB0007F0CE344012D9BF810B000F08B804FF089
:104AC000010903F0070309FA03F32BEA030B074478
:104AD000674487F810B0009BE41AE3B25CB2002C84
:104AE00005DA029C2144039CC9B21C1964B2013648
:104AF0009319DBB29E4529D3F7B2D319B8F1020F4F
:104B0000DBB2C9D1FF07019D2DD5AA457ADDC3F3DC
:104B1000C207FF01C51901F07F0C654495F810B07C
:104B20000025CCE77245A3D91546A2EB0E02D6B2FA
:104B30007246AE4619460396234674084FF0FF3579
:104B4000CB1ADBB2724502950093A0D905B0BDE83F
:104B5000F08F154671461A46A6462B4688E717F091
:104B6000010541D0019DAA452BDCC1F3C207FF011D
:104B700003F07F03C5191D4495F810B0012501F01D
:104B8000070C05FA0CFC4CEA0B0C5FFA8CFC074492
:104B90003B4483F810C09EE7C1F3C207FF0103F056
:104BA0007F0300EB070C9C44012D9CF810B0E5D06E
:104BB0004FF0010901F0070C09FA0CFC2BEA0C0C70
:104BC000E5E7C3F3C207FF01C51901F07F0C654497
:104BD00095F810B0012503F0070305FA03F343EA43
:104BE0000B0B5FFA8BFB72E7019FBA4515DCC1F333
:104BF000C207FF0103F07F0300EB070C9C449CF805
:104C000010B0D5E7C1F3C207FF0103F07F03C51958
:104C10001D4495F810B00025CAE7C3F3C207FF0191
:104C200000EB070B01F07F0CE3449BF810B046E764
:104C30002DE9F043904607461E4683B09DF82C5060
:104C40009DF8289000950C46FFF758FE09F1FF32B9
:104C50004244334638460095D2B2FFF74FFE4B46EA
:104C6000009542463846FFF78DFE4B46711E2144A3
:104C7000C9B20A9503B0BDE8F043FFF783BE00BF99
:104C80002DE9F04F83B09DF830B09DF834A0F3B11A
:104C9000914688460746564600245D1EEDB2013512
:104CA0005FFA84FC08EB0C01BAF1040F5B464A463C
:104CB000384604F10104C9B204D11CF0010F14BF3D
:104CC000032602260096FFF75DFEAC42E8D103B052
:104CD000BDE8F08F0022402300B583B0CDE900315C
:104CE00011468023FFF7CCFF03B05DF804FB00BF43
:104CF0004FF0FF0C2DE9F04F02F007049DF824E07F
:104D0000C4F1080BDE45BCBFCEF108054CFA05FC2A
:104D10000CFA04FCB4BFF3465FFA8BFB5FFA8CFA23
:104D2000CBB16FEA0C0C0C464FEAD20903EB010839
:104D30004FFA8CFC00EBC9195FFA88F809EB0407FD
:104D40003D7C01342AEA0506E4B20CEA0505354348
:104D5000A0453D74F2D103EB010CABEB020B5FFA03
:104D60008CFC02EB0B04E4B2E51DAE4515DD083208
:104D7000D2B2002BF5D00C46D70800EBC7173E196E
:104D8000357C0134ED43E4B2A4453574F7D102EB30
:104D90000B04E4B2E51DAE45E9DCA6451DD9FF25AF
:104DA000AEEB040405FA04F4E4B2E5430832D2B2EF
:104DB000EDB293B1ED43D2080B4400EBC2106EB2DA
:104DC000DAB245182B7C013144EA0307C9B23340FB
:104DD00063EA070391422B74F3D1BDE8F08F00BF63
:104DE0002DE9F04393F801E090469DF81C7013F80C
:104DF000022BBEF1000F1CD0002602F1FF3C5FFA2F
:104E00008CFC10310CF1010C7AB108EBD60501EBEA
:104E1000C515054403EB0C0913F8014B0FB9E44326
:104E2000E4B24B4505F8014BF6D10836F6B2B6456B
:104E3000EAD8BDE8F08300BF2DE9F04F9BB00B929C
:104E40009DF8942006901092249A0991002A00F06F
:104E50003D8192F803B09278CDF804B007920BF13F
:104E60000702D210D1B292B21792249A16911279F7
:104E7000CDF848B01492249A5279169903930139C7
:104E8000C9B20231CB000E93149B13441593931DAA
:104E900018930B9B083B0F93249B06331993039A9B
:104EA00012F8013B0392002B00F0E68014998B422C
:104EB000F5D3159A9342F2DA249A5B1A1278DBB290
:104EC000002A40F0E880249A5278002A40F0E380DB
:104ED000079A179902FB01F202FB03F306339BB218
:104EE0001193169B002B00F0B980079A09994FF097
:104EF000080A8B185FFA83F9002A18BF494613463F
:104F0000109A9BB2012A14BFFF2200220D920022A8
:104F1000139102920C930F9A5FFA8AF39F180B9ADF
:104F2000FFB21344079ADBB20A93002A4CD01199BE
:104F300002984FEAD30E0C182499013C0C440699B0
:104F40007B1C01EBC3130893129BFE08AAEB03031F
:104F500007F00705CDE90437099A109F01EBC61643
:104F600001EBCE1EC5F1080814F8013F0FB9DB4371
:104F7000DBB2BBF1080F11D901998A450EDD049906
:104F80000B41B118DBB2097C3DB1089829411044AE
:104F9000007C00FA08F00143C9B20B43002D6ED02B
:104FA000B01890F810C003FA05F141EA0C01017441
:104FB0000EEB0201087C43FA08F303430B74013241
:104FC000D2B29145D0D1059FBBF1080F5AD9019BB0
:104FD0009A4557DD069C0D99FA08139D04EBC21201
:104FE000AAEB030341FA03F32A4417F00701127CEA
:104FF000DBB20AD0781C04EBC0102844007CC1F15D
:1050000008040A41A0400243D2B21343039A127823
:10501000CAB1F80817F0070736D0069D139E05EBB6
:10502000C01030440A99027C03FA07F4C90805EB62
:10503000C111224331440274087CC7F1080743FAC6
:1050400007F707430F74029B0C9A0AF1080A1344EE
:105050009BB202930E9B53457FF45DAF099B079A69
:1050600001331344039A03F0FF03099312F8013B41
:105070000392002B7FF41AAF1BB0BDE8F08FB1187C
:105080000B749CE70D9BC1E7069A02EBC010139AC4
:1050900010440374D7E7249A1A449279079283B193
:1050A00000221999013BDBB20B442499481D10F8EA
:1050B000011F0A44834292B2F9D1179B03FB02F20B
:1050C00093B2189A13449BB211930AE701211791E6
:1050D000169120211491052107220791034912926C
:1050E0000192934624916022C7E600BF5057010009
:1050F00000232DE9F04F0446012687B0019300F10B
:105100004F0BD8464FF0000A019D6AF0470229462E
:10511000D2B22046FFF782FB294640222046FFF705
:105120007DFB4FF08C09A8F1400501992046FFF75F
:1051300051FBE179A07906FA01F1FBF7D1FAE17AA6
:10514000A07A06FA01F1FBF7D5FACDF80890029F94
:105150007A1E0292002FFAD115F8012F3946607895
:10516000FBF72EFC2A783946D2436078D2B2FBF79F
:1051700035FCC8230393039B5A1E0392002BFAD1DC
:10518000617A207A06FA01F1FBF7AAFA4FF4E1738B
:105190000493049B5A1E0492002BFAD1617A207A60
:1051A00006FA01F1FBF7A6FA0A230593059B5A1E9E
:1051B0000592002BFAD14545B7D10AF1010ABAF19F
:1051C000080F05F180089FD1019B0BF1400B13B92B
:1051D0000123019395E707B0BDE8F08F70B5012575
:1051E0000446544E417B337884B0037005FA01F1D4
:1051F0002B442A46007B3370FBF76EFAE17A2A468D
:1052000005FA01F1A07AFBF767FAE1792A4605FA77
:1052100001F1A079FBF760FA617A2A4605FA01F1FB
:10522000207AFBF759FAE1782A4605FA01F1A078CD
:10523000FBF752FA61792A4605FA01F12079FBF76A
:105240004BFA2B466078FF220021FBF77FFBE17BC6
:105250002A4605FA01F1A07BFBF73EFAE17BA07B31
:1052600005FA01F1FBF73CFA617A207A05FA01F1BF
:10527000FBF740FA0A230293029B5A1E0292002B6C
:10528000FAD10125E178A07805FA01F1FBF732FAAD
:105290006179207905FA01F1FBF72CFAE179A0791F
:1052A00005FA01F1FBF726FAE17AA07A05FA01F195
:1052B000FBF720FA8C230393039D6B1E0393002DB1
:1052C000FAD10126617B207B06FA01F1FBF712FA85
:1052D00042F2107008F064FD617B207B06FA01F158
:1052E000FBF7FEF94CF2503008F05AFD29462046F3
:1052F0003F22FFF793FA29462046C022FFF78EFA95
:10530000314620463F22FFF789FA31462046C02227
:10531000FFF784FA40232046CDE900352A46802352
:105320002946FFF7ADFC204604B0BDE87040FFF70A
:10533000DFBE00BF401900102DE9F04FDFF8E0B0EC
:1053400083B0DBF80040A04262D8451E00285FD041
:105350004FF000094FF00108DFF8C8A001920F18C4
:1053600002EBC506DAF80030142B43D900232B4A90
:1053700004E00133152B02F1180238D051680029DE
:10538000F7D1DBF80020254903EB4303013A01EB99
:10539000C304CBF80020227A013F71683878019B62
:1053A00002F0FE026FF3410222722070666013F871
:1053B000350008FA01F10122FBF78EF9606800223E
:1053C00001790078FBF76EFB6268013D5168107847
:1053D00008FA01F1FBF78EF96B1CC4F81490A6F1E2
:1053E0000806A146BED1204603B0BDE8F08F0023D9
:1053F0001B70FFDEDBF80020591C013ACBF80020BF
:10540000064A03EB4303CAF8001002EBC304C2E7E9
:105410000024204603B0BDE8F08F00BF48190010FB
:10542000180000104419001010B50446406930B946
:105430000023044A636013680133136010BDFFF753
:10544000F3FFF5E718000010012AA8BF012248B3B6
:10545000F8B50F4615460446012623781F421AD098
:10546000237A03F0FD036FF3C30303F00102AA42A2
:10547000237210D06368002DB8BFC2F101055968CE
:10548000012D187806FA01F109D0FBF733F9237AD8
:1054900065F3000323726469002CDED1F8BDFBF7CD
:1054A0001FF9F4E7704700BF0122FFF7CDBF00BF2F
:1054B0000022FFF7C9BF00BF4FF0FF32FFF7C4BFA4
:1054C000DAB1D3B100B370B407E006720282047A95
:1054D00044F0020404724069A0B104782142FAD079
:1054E000047A828114F00105C38144F00406ECD1F2
:1054F00065F3820404720382E9E7037A6FF34103E0
:105500000372704770BC7047704700BF2DE9F843C5
:10551000354FB7F8FC410134A4B2204609F098F8A1
:105520002FA3D3E9002309F083FB002851D1804643
:10553000A7F8FC4100244FF001092C4D21E05168EF
:105540005B07107809FA01F137D5FBF7D3F8331967
:1055500007EBC3031A7B6FF300021A73EB892B82EC
:10556000264407EBC606337B1A46C3F38003C3F118
:10557000010363F3820232730134152C05F118051F
:1055800019D06A68002AF7D06600331907EBC30305
:105590001B7B9907F0D5B8F1000FEDD0298A0029BF
:1055A000CDD0013989B229820029C8D00134152C07
:1055B00005F11805E5D1BDE8F883FBF791F833193B
:1055C00007EBC3031A7B42F001021A73AB892B82EB
:1055D000C6E700234FF00108A7F8FC31AAE700BF97
:1055E00064703E06E76348404419001048190010F3
:1055F0002DE9F04F406889B008F014FA049008F0E3
:1056000099FA0023CDE90503002850D044490A68DF
:105610000292002A3BD08046049A0393CDE90032DF
:1056200001F1040ADAF808704FB30024019BA34685
:10563000DAF804901E1F04E00134D8451ED95F45F6
:1056400058D059F82B5056F8041F28460AF05AFD36
:105650000BF1010B0028EFD0002CEED025212846BD
:105660000AF0DCFC0028E7D128462E490AF04AFD62
:1056700000BB0123D84503931C44E0D8E4B9009B48
:10568000029A0133934200930AF1100ACAD100230F
:10569000254A52F8234020460AF070FE0146204673
:1056A00000F0B8FB049B01930198FCF7CFFB09B015
:1056B000BDE8F08FD845C2D85F451FD959F82B00F7
:1056C00018490AF01FFDC8B9013FB84526D3144B4D
:1056D000009A03EB021BDBF81030002BE4D004A887
:1056E000984706980028DDD0079900F093FB049BAB
:1056F0000193D9E7BB46002CC1D0DDE7039ABB1A62
:1057000098450BD3B84503D9002AE0D10123BFE760
:10571000A045DCD0039B002BBAD0D8E70223B7E723
:10572000441B0010207F01001C000010F8B50E4C37
:105730002368132B00D9FEE70F4608F01FFB2668ED
:1057400004EB0616706008F06DF92568B06004EB94
:105750000515A86808F0EEF92368E86004EB031269
:10576000013317612360F8BD441B00100C4B70B56A
:105770008B600D4606460AF001FE1F2888BF1F23D6
:10578000084C94BFE860EB6004F5A270202231461B
:105790000AF06CFE0023EA68144484F8443170BDBA
:1057A000881C0010441B001070B5094E33686BB1A3
:1057B0000025341D2068FCF749FB6068FCF746FBB8
:1057C00033680135AB4204F11004F3D870BD00BF5B
:1057D000441B00104FF4807370B54F4A4F48504936
:1057E000504D0360504E0B60504C13602B60504D79
:1057F000236040F82C3C41F8903C284642F82C3C71
:105800003146FEF781FD311D05F11400FEF77CFDE8
:1058100006F1080105F12800FEF776FD06F10C01FE
:1058200005F13C00FEF770FD06F1100105F1500096
:10583000FEF76AFD06F1140105F164003D4CFEF728
:1058400063FD06F1180105F17800FEF75DFD06F134
:105850001C0105F18C00FEF757FD20463649FAF78A
:105860008BFE002220461146FAF7DAFE204600227F
:105870000121FAF7D5FE204600220221FAF7D0FED8
:10588000204600220321FAF7CBFE20460022042105
:10589000FAF7C6FE204600220521FAF7C1FE20468F
:1058A00000220621FAF7BCFE204600220721FAF763
:1058B000B7FE204601220021FAF7C0FE0122204651
:1058C0001146FAF7BBFE204601220221FAF7B6FE86
:1058D000204601220321FAF7B1FE204601220421CD
:1058E000FAF7ACFE204601220521FAF7A7FE204672
:1058F00001220621FAF7A2FE204601220721FAF72B
:105900009DFE20460021FAF763FE2046BDE8704068
:105910000121FAF767BE00BF60C002405CC00240D0
:10592000F8C00240FCC002407859010064C0024047
:10593000A81C001000400340801A060001289DBFEB
:105940004FF48362024B02FB00300020704700BF1F
:105950002C000010014BC3F8A0007047A81C0010D9
:1059600006289DBF034B03EB8000D0F8A400002065
:10597000704700BFA81C0010012814D9831EDAB29A
:10598000062A0AD90938C3B2072B9DBF094B00EB81
:10599000800003EB800000207047074803EB83037F
:1059A00000EB83007047054BC0EBC00003EB8000A9
:1059B000704700BFA81C0010A01D0010681D00103B
:1059C0002DE9F0418C4D86B0FAF708FC01218B4897
:1059D000FAF78CFD05F13C00FCF768FA01224FF460
:1059E00000110320FAF778FE4FF400110320FAF7B4
:1059F00081FE6B6D824C1A0C8DF8022005F15C065D
:105A000005F12002ADF8003004F11C0501E056F864
:105A1000042B69460320FFF78FFC44F8040FAC42C7
:105A2000F5D17848FDF708FF0020FFF7A5FF0446F1
:105A3000024600210120FEF73BFC20467249FEF79A
:105A400063FC204603220121FEF7A2FC4FF4FA7208
:105A500000212046FEF79CFC6C48FDF7EDFE01207E
:105A6000FFF78AFF0121044602460846FEF720FCA4
:105A700020466749FEF748FC664F20460322012175
:105A8000FEF786FC204632220021FEF781FC00242E
:105A9000A7F1500601E057F8046BE1B2881CC0B2D0
:105AA000FFF76AFF054602460020FEF701FC0134BD
:105AB00031462846FEF728FC072CECD1564F00242F
:105AC000A7F1A40601E057F8046BE1B201F1090067
:105AD000C0B2FFF751FF054602460220FEF7E8FB81
