:10000000008000103D010000F500000053B000002A
:1000100063B0000073B0000083B000000000000077
:10002000000000000000000000000000812200002D
:10003000FF00000000000000112300005523000015
:1000400001010000FF550000A5560000010100005D
:10005000010100004DCA00005DCA00006DCA000029
:100060007DCA000001010000010100000101000043
:100070000101000001010000010100000101000078
:100080000101000001010000010100000101000068
:100090000101000001010000010100000101000058
:1000A0000101000001010000010100000101000048
:1000B0000101000001010000010100000101000038
:1000C000010100000101000001010000248601007F
:1000D000000000106C1800002486010000C00720FA
:1000E000000000006C1800104018000000C007203D
:1000F00000000000FEE7FEE7FEE7FEE7FEE7FEE7A2
:10010000FEE762B130B404461546091A231D226881
:1001100062501C461B1A9D42F8D830BC704770478D
:1001200059B110B402460C460021131D11601A4645
:100130001B1AA342F9D310BC7047704738B5154A53
:10014000154B9A4223D214461D46206861680C3430
:1001500054F8042CFFF7D5FFAC42F6D30F4B9C426A
:1001600010D204F1080507335B1B23F0070310349A
:100170001C4455F8041C55F8080CFFF7D1FF08354E
:10018000A542F6D100F0A2F80AF04CFFFEE7014CC0
:10019000E4E700BFCC000000E4000000F400000031
:1001A000FEE7FEE7FEE700BF424BD3F88830C3F31B
:1001B0000163032B0AD03F4BD3F80C3103F0030348
:1001C000032B76D8DFE803F0545F6A54394BD3F839
:1001D0000C3103F00303032B6BD8DFE803F0021AA2
:1001E0003202344AD2F88800D2F88810D2F80421BA
:1001F000C0F30E00304B00FB0333C1F30741013164
:10020000B3FBF1F3D2B20132B3FBF2F32B4A13602A
:100210007047284AD2F88800D2F88810D2F8042112
:10022000C0F30E00264B00FB0333C1F3074101313D
:10023000B3FBF1F3D2B20132B3FBF2F31F4A136006
:1002400070471C4AD2F88830D2F88810D2F80421BE
:10025000C3F30E0301331B04C1F307410131B3FBA8
:10026000F1F3D2B20132B3FBF2F3144A13607047D8
:10027000104BD3F80431DBB20133124AB2FBF3F373
:100280000E4A136070470B4BD3F80431DBB20133D5
:100290000D4AB2FBF3F3094A13607047054BD3F8DC
:1002A0000431DBB201334FF40042B2FBF3F3034AF3
:1002B0001360704700C00F4000127A000000001069
:1002C000002D310100093D0080969800244B20222A
:1002D000C3F8A0211A46D2F8A03113F0400FFAD08B
:1002E0001F4B0222C3F804210022C3F8A821C3F83F
:1002F000AC210120C3F80C010E22C3F88420AA21EE
:10030000C3F88C105522C3F88C20C3F88000C3F8C2
:100310008C10C3F88C201A46D2F8883013F0806F06
:10032000FAD00F4B0322C3F88020AA22C3F88C20F6
:100330005522C3F88C201A46D2F8883013F0407F3B
:10034000FAD0074B0022C3F80821C3F8C420C3F831
:10035000C8211A6822F4704242F480421A60704741
:1003600000C00F4010B41F2812D92038114BD3F809
:10037000AC210324844022EA0402C3F8AC21D3F860
:10038000AC2101FA00F01043C3F8AC0110BC704777
:10039000084BD3F8A8210324844022EA0402C3F8BE
:1003A000A821D3F8A82101FA00F01043C3F8A8014E
:1003B000ECE700BF00C00F401F2808D92038064BCB
:1003C000D3F8AC3123FA00F000F003007047024B81
:1003D000D3F8A831F6E700BF00C00F4010B5074BB7
:1003E0001C68FFF7E9FF38B10346032814BF034632
:1003F0000823B4FBF3F010BD0423FAE7000000105B
:1004000001290AD041B9094AD2F8C410084B0B405F
:1004100023EA0003C2F8C4307047044BD3F8C41079
:10042000034A02400A43C3F8C420704700C00F408B
:10043000DEF7EFEF024B0022C3F8C02030BF704759
:1004400000C00F40044B04221A61044B0822C3F879
:10045000C02030BF704700BF00ED00E000C00F407B
:10046000044B04221A61044B0922C3F8C02030BF98
:10047000704700BF00ED00E000C00F40044B0422B5
:100480001A61044B0322C3F8C02030BF704700BF7D
:1004900000ED00E000C00F4038B505460C460121D4
:1004A0004FF48050FFF7ACFF00232B601820FFF7BC
:1004B00095FF04EB841404EB40036400B3FBF4F3F6
:1004C000013B1B0243F400132B6038BD08B50368E1
:1004D00023F40013036000214FF48050FFF790FFD6
:1004E00008BD034B53F82000C0F30B10704700BF4A
:1004F00010400340036823F0E0630360036843EAAD
:10050000016101607047036823F48033036019B10F
:10051000036843F4803303607047036823F40013D7
:10052000036019B1036843F4001303607047036864
:1005300023F00063036019B1036843F000630360B4
:10054000704710B4C468012303FA01F124EA0104DE
:10055000C46012B1C3681943C16010BC7047012A5E
:1005600007D00368012202FA01F123EA01010160C8
:1005700070470268012303FA01F1114301607047DB
:1005800000EB81010869C0F30B10704700EB81019B
:1005900008692AB100F00040003018BF0120704700
:1005A00000F08040F8E740687047406829B100F0EB
:1005B0000040003018BF0120704700F08040F8E78D
:1005C00004280ED8DFE800F0030507090B000648F1
:1005D0007047064870470648704706487047064807
:1005E00070470020704700BF00C0092020C00920CC
:1005F00040C0092060C0092080C0092004280ED80E
:10060000DFE800F0030507090B00064870470648BD
:1006100070470648704706487047064870470020F4
:10062000704700BF00C0092020C0092040C0092039
:1006300060C0092080C0092004280ED8DFE800F03F
:10064000030507090B00064870470648704706482F
:10065000704706487047064870470020704700BF43
:1006600000C0092020C0092040C0092060C0092026
:1006700080C0092038B50C461546FFF7A1FF20B110
:1006800025B9026822EA0404046038BD02681443F4
:100690000460FAE710B50C46FFF792FF00B18461E1
:1006A00010BD10B50C46FFF78BFF00B1C46110BD43
:1006B00008B5FFF785FF08B1406908BD0020FCE7D9
:1006C000034640B922B1012A07D10A4B596170474C
:1006D000084B19617047022802D0022B01D0FEE7B7
:1006E00022B1012AFBD1034B59637047014B1963B7
:1006F000704700BF80800240034670B93AB1012ABA
:100700000DD1104B9868C84000F0010070470D4BA8
:100710005868C84000F001007047022802D0022B40
:1007200001D0FEE73AB1012AFBD1064B986AC840D6
:1007300000F001007047034B586AC84000F0010008
:10074000704700BF8080024010B1022803D0FEE74E
:10075000024BD9607047014BD962704780800240DC
:1007600008B5FFF787FF08BD08B5FFF793FF08BD81
:1007700008B5FFF796FF08BD08B5FFF799FF08BD5C
:1007800008B5FFF79DFF08BD08B5FFF7B5FF08BD29
:1007900008B5FFF7D9FF08BD38B50C461546FFF779
:1007A0000FFF20B125B9026922EA0404046138BDB3
:1007B000026914430461FAE770B50D4614461E46FB
:1007C000FFF71CFF70B146B11DB14288144344804D
:1007D00008E002881443048004E025B9028822EA74
:1007E0000404048070BD428822EA04044480F9E7CE
:1007F00070B50D4614461E46FFF700FF70B146B1B6
:100800001DB1428A1443448208E0028A14430482E0
:1008100004E025B9028A22EA0404048270BD428AF7
:1008200022EA04044482F9E738B50D461446FFF77E
:10083000E5FE08B10DB9048338BD4483FCE738B543
:100840000D461446FFF7DAFE08B10DB9848338BDB2
:10085000C483FCE710B50C46FFF7D0FE30B114B9E5
:10086000808A80B210BDC08A80B2FBE70020F9E721
:1008700070B50C4616461D46FFF7DEFE60B12DB181
:10088000032C09D8025D1643065505E0032C03D856
:10089000025D22EA0606065570BD70B50C46164686
:1008A0001D46FFF7C9FE78B1014635B1032C0BD8C0
:1008B00021440B7C1E430E7406E0032C04D8214413
:1008C0000B7C23EA06060E7470BD38B50C4615463F
:1008D000FFF7B2FE20B10146032C9CBF09190D762B
:1008E00038BD38B50C461546FFF7A6FE20B10146C7
:1008F000032C9CBF09190D7738BD10B50C46FFF7C6
:100900009BFE30B10146032C05D82144087DC0B2BE
:1009100010BD0020FCE70020FAE700BF10B40C4631
:1009200040000F2984BFA1F110040130800000F1C4
:10093000804000F530306100032303FA01F40368BE
:1009400023EA04038A401343036010BC704730B4A9
:100950000C4640000F2984BFA1F110040130074D5F
:100960006100032303FA01F455F8203023EA04035D
:100970008A40134345F8203030BC704740C00240E5
:10098000012A0AD0094A012303FA01F152F8203062
:1009900023EA010342F820307047044B02FA01F1C8
:1009A00053F820200A4343F82020704768C00240D3
:1009B000012806D020B9064A936A23F008039362FF
:1009C0007047034A936A43F008039362704700BF7D
:1009D00000C00240002914BF05220A22014BDA6739
:1009E000704700BF00C0024010B5044682784178CD
:1009F0000078FFF793FFE27861782078FFF7A7FF90
:100A0000227961782078FFF7BBFF10BD70B50546ED
:100A10000F4B1C680F4BA3FB0434A4090DF092FB91
:100A200006464FF08070B0FBF4F00DF08BFB0146F2
:100A300030460DF09BFD00B1FEE7074A136843F016
:100A40000403136005FB04F3013B536070BD00BF5A
:100A500000000010D34D621010E000E070B50C46AD
:100A60000E4BA3FB00239D0908460DF06BFB0646C9
:100A70004FF08070B0FBF5F00DF064FB014630469E
:100A80000DF074FD00B1FEE7054A136823F004037E
:100A9000136004FB05F3013B536070BDD34D62103E
:100AA00010E000E00128044A13680CBF43F0010382
:100AB00023F001031360704710E000E00128044AAE
:100AC00013680CBF43F0020323F002031360704766
:100AD00010E000E0014B9868704700BF10E000E0B4
:100AE000024A136823F480331360704710E000E07B
:100AF0000268012303FA01F1114011F0FF0F14BF46
:100B000018460020704703680A1D012191401940D2
:100B100011F0FF0F14BF012000207047012303FADA
:100B200001F1016070470431012303FA01F1016012
:100B3000704710B100234B70704701230B704B605E
:100B4000704770B504460E461546B0F1402F25D0CB
:100B5000424B98422BD0424B984231D0414B984265
:100B600038D0A36A23F00303A362A36AA36200231D
:100B7000A3602361E360636843F00203636063681A
:100B800023F002036360002E47D12B7863BB6B68B0
:100B9000013BE3604FF0FF33236070BD0121022071
:100BA000FFF72EFC00210220FFF7DCFBD9E7012133
:100BB0000420FFF725FC00210420FFF7D3FBD0E73A
:100BC00001214FF48000FFF71BFC00212C20FFF7D0
:100BD000C9FBC6E701214FF40000FFF711FC00211B
:100BE0002E20FFF7BFFBBCE7B4F1402F2BD01B4BEF
:100BF0009C422DD003F508239C421AD003F5804374
:100C00009C421BD06D680020174A0023A0FB050101
:100C10000DF0DCFC0138E060BCE7A36A23F00C03B4
:100C2000A3626B78012BB5D1A36A43F00403A362DE
:100C3000B0E76D682C20FFF7D1FBE5E76D682E204B
:100C4000FFF7CCFBE0E76D680220FFF7C7FBDBE7AF
:100C50006D680420FFF7C2FBD6E700BF00800040AC
:100C6000000009400040094040420F0008B5002341
:100C70004360B0F1402F09D00F4B98420BD00F4B7F
:100C800098420DD00E4B984210D008BD1946022054
:100C9000FFF7B6FBF9E700210420FFF7B1FBF4E70B
:100CA00000214FF48000FFF7ABFBEEE700214FF48B
:100CB0008000FFF7A5FBE8E7008000400000094046
:100CC00000400940012943680CBF43F0010323F0B1
:100CD000010343607047436843F002034360436885
:100CE00023F00203436070470B78032B03D8DFE83F
:100CF00003F003484B4EFEE78B68836110B44269F2
:100D00000B7803EB4303072404FA03F322EA0303FB
:100D100043614B783BB144690B7803EB43020123F9
:100D2000934023434361CB784BB144690B7803EB89
:100D300043030133012202FA03F3234343618B7817
:100D40004BB144690B7803EB43030233012202FAEF
:100D500003F323434361C26B0B785B00043303242A
:100D600004FA03F322EA0303C363C46B0B7903F0B1
:100D700003030A785200043293402343C36310BC38
:100D800070478B68C361B9E78B680362B6E78B680D
:100D90004362B3E7032903D8DFE801F0030507093D
:100DA000FEE782617047C26170470262704742622B
:100DB000704710B4826A0B7803EB4303072404FAEC
:100DC00003F322EA030383624B783BB1846A0B7816
:100DD00003EB430201239340234383628B784BB19F
:100DE000846A0B7803EB43030133012202FA03F315
:100DF00023438362CB784BB1846A0B7803EB4303C4
:100E00000233012202FA03F32343836210BC7047CA
:100E100009B1006B7047C06A704700BF2DE9F04F01
:100E20008DB083460991B54B98425BD0B44B984244
:100E30005DD0B44B98425FD0B34B9B4562D0B04B72
:100E40009B4565D007238BF8083000238BF80830CA
:100E50009BF8143013F0010F06D09BF800309BF87C
:100E6000143013F0010FF8D180238BF830309BF849
:100E7000143013F0200FFAD000238BF83030CBF869
:100E800004308BF80C30CBF820309BF814309E4B9C
:100E90009B456CD0099BD3F80090984B9B4571D033
:100EA000974B9B455ED0974B9B4570D0964B9B458F
:100EB00063D000230B930B9B1A0908921B0707931F
:100EC000022306934FF001084FF0FF3A002300245D
:100ED000CDE902340593049357464646C846CDF8FB
:100EE00028B083E001210820FFF78AFAA4E7012156
:100EF0001020FFF785FAA2E701214FF08070FFF77D
:100F00007FFA9FE701214FF00070FFF779FA99E728
:100F100007221A7200221A721B7D13F0010F05D0EE
:100F2000774B1A781A7D12F0010FFAD1744B802298
:100F300083F830201A46137D13F0200FFBD0704B3E
:100F4000002283F830205A601A731A621A7483F8E8
:100F50004C2083F8542083F850201A7E1B7D099B77
:100F6000D3F800900820FFF739FA0B90A3E700228E
:100F700083F82420099BD3F800903220FFF72EFA43
:100F80000B9098E70620FFF729FA0B9093E73020A3
:100F9000FFF724FA0B908EE701344D44B4421CD085
:100FA0002A460023504659460DF010FB02460B46D8
:100FB000B0F1004F84BF42424B1C591EB1F5803F37
:100FC000EAD2BA42E8D218460021CDE9020132B392
:100FD0001746019B05930494DEE7A7B1069B0F2BF0
:100FE00017D80136069B01330693C844002E00F043
:100FF000B580079BA6FB03AB089B06FB03BB4546DE
:1010000000240196CCE7DDF828B0DDF81480049CBC
:1010100008E0DDF828B0DDF81480049C02E0B0465A
:10102000DDF828B0DDE9025655EA060355D00B9BE2
:10103000180904EB0801A1FB052301FB063308FB9B
:1010400000F000210DF0C2FA484534BFA9EB0000C2
:10105000A0EB0900642303FB00F3B3FBF9F9B9F13A
:10106000020F3AD8264B9B451CD09BF80C3043F01E
:1010700080038BF80C30DDE90212C1F307238BF8F3
:101080000430CBB28BF800309BF80C3003F07F03B8
:101090008BF80C3004F00F0343EA0813DBB28BF833
:1010A00028301DE01A7B42F080021A73DDE902014C
:1010B000C0F307221A71C2B21A701A7B02F07F02C3
:1010C0001A734FEA0812D2B204F00F0422439A6254
:1010D0000B4B1B7B03F0C00306E0094B9B45F7D08D
:1010E0009BF80C3003F0C003099A5279012A0DD005
:1010F00072B1022A29D043F0030309E000C0004086
:10110000000001400080094000C0094043F0010395
:10111000099A12794AB1032A1AD0042A1BD0022A4A
:1011200014BF43F0080343F01803099A9279012A87
:1011300008BF43F004030E4A9345DBB20CBF1373A0
:101140008BF80C300DB0BDE8F08F43F00203DFE701
:1011500043F02803E9E743F03803E6E7002F7FF484
:1011600040AFDDF828B0DDF81480049C5AE700BFDA
:10117000000001404FF41653036003234371002322
:10118000037183717047034B98420CBF1970017053
:10119000704700BF00000140034B98420CBF187815
:1011A0000078C0B2704700BF00000140F0B4012BCE
:1011B00009D0002A4AD0037D13F0200F48D0102414
:1011C0000023264E34E01346002A3CD00027234D4E
:1011D00017E0002B3ED0002A3ED001F110060C464D
:1011E00014F8013BA8420CBF2B700370013AE319BD
:1011F0005B1AA64202D0002AF2D124E01F4612B3A5
:101200002146037D13F0200F08BF4FF0FF33E2D1DA
:10121000013B047D14F0200FDBD1002BF8D13B46BD
:1012200011E09A420FD0047D14F0200F0BD010244F
:1012300011F8015BB0420CBF357005700133013C01
:10124000EFD09A42F4D11846F0BC70471346FAE743
:101250000023F8E73B46F6E73B46F4E70000014091
:1012600070B4012B19D0002A37D0037D13F0010F81
:1012700035D0013900241C4DA8420CBF2B780378CF
:10128000DBB201F8013F0134A24203D0037D13F029
:10129000010FF1D1204670BC704712B34D1E0024DF
:1012A000114E0BE0002BF5D0B0420CBF3378037821
:1012B000DBB205F8013F0134A242EBD0037D13F00D
:1012C000010F08BF4FF0FF33EED1013B017D11F05C
:1012D000010FE7D1002BF8D1DCE71446DAE7002450
:1012E000D8E71446D6E700BF00000140064B9842FD
:1012F00004D0037B43F04003037370471A461B7B03
:1013000043F040031373704700000140062922D8C0
:10131000DFE801F004131517191B1E000121012A33
:101320001BD0194B984224D0436823F0F8039B0547
:101330009B0D23EA0103436070470221EFE704217C
:10134000EDE70821EBE78021E9E74FF48071E6E75C
:101350004FF40071E3E70021E1E70B4B984203D023
:1013600043680B43436070471A465B680B43536006
:1013700070471A465B6823F070039B059B0D23EAB8
:1013800001035360704700BF00000140034B9842C7
:101390000CBF187D007DC0B2704700BF0000014047
:1013A000806820F030008005800D7047007D80F05F
:1013B0004000C0F380107047CB78012B19D0D3B117
:1013C000022B0CBF8123C1234A78012A08BF43F0B6
:1013D00004030A78012A08BF43F002038A78012A2D
:1013E00008BF43F00803054A90420CBF1372037212
:1013F00070474123E8E70123E6E700BF0000014012
:1014000000238370C3700123037043707047012A67
:1014100005D01E4B984234D00023036270470B78EE
:10142000012B14BF002302234A78012A14D0174A43
:10143000904214D0027B42F08002027300220270BC
:101440000271027B02F07F020273102280F82820D2
:1014500043F001030362704743F00403E7E70B4ADC
:10146000117B41F080011173002111701171117B0A
:1014700001F07F0111731021916243F001031362A7
:101480007047024B00221A62704700BF0000014003
:10149000054B984203D0036A1943016270471A6AE8
:1014A00011431962704700BF00000140012908D0B4
:1014B000104B984217D090F83030002380F830302D
:1014C00070470C4B984206D090F8303043F08003C0
:1014D00080F8303070471A4693F8303043F080037C
:1014E00082F83030704793F83020002283F83020A3
:1014F000704700BF0000014010B504460021FFF70F
:10150000D5FF114B9C4209D0104B9C420BD0104B85
:101510009C420DD00F4B9C4210D010BD00210820E2
:10152000FEF76EFFF6E700211020FEF769FFF4E7F3
:1015300000214FF08070FEF763FFEEE700214FF0CF
:101540000070FEF75DFFE8E700C0004000000140CA
:101550000080094000C00940012907D029B990F84E
:10156000243003F03D0380F82430704790F8243095
:1015700043F0020380F824307047012990F82430AA
:101580000CBF43F0010303F03E0380F824307047A2
:1015900090F8243003F0C70343F00403C90001F0BE
:1015A0003801194301F03F0180F82410704761B100
:1015B00001290CBF02210021012A037C0EBF0B432D
:1015C00003F0F3038B43037470470121F4E701290F
:1015D0000FD061B102290CBF80210021012A037CB8
:1015E0000EBF0B4303F0F3038B43037470471021CA
:1015F000F4E74021F2E7007E7047CB78012B14D04E
:1016000000230A78012A08BF43F001038A78012ADF
:1016100019D04A780AB943F00203DBB280F84C30A3
:10162000037B43F03803037370474B79012B14BFDE
:10163000102330230A79012A08BF43F00803CA792E
:1016400080F85420DDE743F004038A7980F85020C5
:10165000DFE7012990F84C300CBF03F0FD0343F0A5
:10166000020380F84C30704738B504466BB1057BF7
:10167000EDB205F0EF0303730123FFF797FD237D20
:1016800013F0400FFBD0257338BD0123FFF78EFD0B
:10169000237D13F0400FFBD0F6E710B582B002AC0B
:1016A00004F8011D01231A462146FFF7DDFF02B0B1
:1016B00010BD08B50023FFF7D7FF08BDF8B50446F5
:1016C0000D462B4B984203D02A4B98421ED0F8BDB2
:1016D00001214FF40010FEF793FE6B68AA681343D4
:1016E0002A6913432A6813439BB2214A1360EB68AB
:1016F00003F00F0353606E692A20FEF76FFEB6F108
:10170000FF3F1BD002250022174625E001214FF4A0
:101710008060FEF775FE6B68AA6813432A6913435D
:101720002A6813439BB2134A1360EB6803F00F035C
:1017300053606E691420FEF751FEE0E70225002297
:101740002368DBB223602368120292B21A4322603C
:10175000EDB22561BBE70A46511C05FB01F3B0FB66
:10176000F3F3B342ECD9FF29F5D902353A46F3E752
:10177000008008400000034008B5094B984203D0A0
:10178000084B984206D008BD00214FF40010FEF728
:1017900037FEF8E700214FF48060FEF731FEF2E7F4
:1017A0000080084000000340006800F00F00704710
:1017B000002343608360034A426107220260C360E2
:1017C0000361704740420F00012943680CBF43F09A
:1017D000020303F00D0343607047012943680CBF07
:1017E00043F0010303F00E0343607047012943688F
:1017F0000CBF03F0070343F00803436070478160A8
:101800007047806880B270472DE9F0410023CB60BB
:101810004B604B61C36813F0040F04D08368C36846
:1018200013F0040FFAD103230362046804F00F04D9
:10183000002A71D1082C1BD88D680F684FF0000C5E
:1018400066464FF6FF7E4FF0FF084A680B699A42E2
:1018500050D0C36813F0020F10D1836913F0010F49
:1018600037D043F400734B614FF0FF30BDE8F08197
:101870008E68D1F800C000273D46E2E70B6843B10F
:10188000082C14D817F8013B83604B6801334B6078
:10189000E3E7082C05D8C0F808804B6801334B609B
:1018A000DBE7C0F808E04B6802334B60D5E73CF853
:1018B000023B83604B6802334B60CEE726F8022B75
:1018C000CB680233CB6004E0082CF9D8CB68013335
:1018D000CB60C36813F0040FB7D0CA680B699A4293
:1018E000B3D082688B68002BEED0082CE6D805F8C0
:1018F000012BEBE7CB689A4201D0C368ADE74FF408
:1019000080704861086808B11846AFE78B68002B03
:1019100014BF10460020A9E7012A1DD14FF6FF771A
:10192000FF26C36813F0020F45D04B680A69934243
:101930004DD00A689AB1082C1DD8D35C83604B68DF
:1019400001334B60836913F0010F24D043F400731B
:101950004B614FF0FF3089E74FF0FF3086E7082CEE
:1019600004D886604B6801334B60EBE787604B68B7
:1019700002334B60E6E7D35A83604B6802334B6017
:10198000E0E7D552CB680233CB6004E0082CF9D8ED
:10199000CB680133CB60C36813F0040FC1D0CB68B0
:1019A0000A699342BDD085688A68002AEED0082C67
:1019B000E7D8D554ECE7CB680A6993420AD14A6864
:1019C000934207D14FF480734B6100204EE7CA6801
:1019D0009342F7D00F234361002047E7C3680B42CF
:1019E00014BF012000207047012A43690FBF19432B
:1019F000C94301F00F0119404161704783690B42EF
:101A000014BF01200020704780697047C3690B42F2
:101A100014BF01200020704701627047012A436A09
:101A20000FBF1943C94301F00301194041627047D8
:101A300010B4134A00E01A4613688342FBD351687E
:101A40005418A04209D041684418A3420AD0036048
:101A5000904218BF106010BC70474068014451604C
:101A60001046F0E7064CA468A34206D05B68194410
:101A7000416013681B680360EAE70360E8E700BFA2
:101A80006C180010F8B5044600F0B6FF284BDD686E
:101A9000254210D1B4B104F1080313F0070F1CBFA5
:101AA00023F0070308336BB1214A16699E420CD319
:101AB0001F490C680EE001F029F809F0EAFA002746
:101AC0003846F8BD01F022F8F7E701F01FF8F4E717
:101AD0002146144662689A4202D22268002AF7D14F
:101AE000134A9268A24219D00F68083722680A6028
:101AF0006268D21A102A14D86368F61A0C4A166162
:101B0000526996423CBF0A4A56611D4365600023F4
:101B1000236000F0FBFF002FD2D1CEE700F0F6FFEC
:101B2000CBE7E01842606360FFF782FFE4E700BFA5
:101B30006C180010F0B110B5044650F8042C0E4992
:101B4000C9680A4202D050F8080C00B110BD22EA60
:101B5000010244F8042C00F04FFF074A54F8043CFB
:101B600011690B441361A4F10800FFF761FF00F055
:101B7000CDFFEBE7704700BF6C180010014B1869F0
:101B8000704700BF6C180010014B5869704700BFC8
:101B90006C180010F0B54268002A38D01D4B9D68C3
:101BA0000830002427469C46264615E01A44083A89
:101BB00022F007014E600E601A46A1EB030EC3F837
:101BC00004E0196005B12B6053681F4401340830EC
:101BD00050F8042C0D468AB150F8083C13F0070F5A
:101BE00005D0D91D21F007011A44521A0B46002CCA
:101BF000DCD1CCF80030CCF80460D7E7054B996015
:101C0000044B5F611F614FF00042DA60F0BD0027B6
:101C1000F6E700BF6C18001038B504461546026C94
:101C2000EAB165B980680DF001F9A368226C13442C
:101C3000A3606268934212D32368A3600FE0C06878
:101C40000DF0F4F8226C5242E3681344E36021681B
:101C50008B4202D263681A44E260022D04D0A36B67
:101C60000133A363002038BDA36B002BF7D0A36B17
:101C7000013BA363F3E7026C72B110B5C368134470
:101C8000C3604468A34224BF0368C3600C46C168B4
:101C900020460DF0CBF810BD704738B5044600F073
:101CA00019FBA36C002B14DD636A93B104F12405C6
:101CB00009E001F08DF9A36C013BA364A36C002B38
:101CC00007DD636A2BB1284601F0ECF80028F2D05A
:101CD000EFE74FF0FF33A36400F00DFB00F0FAFADA
:101CE000636C002B14DD236993B104F1100509E046
:101CF00001F06EF9636C013B6364636C002B07DDDC
:101D000023692BB1284601F0CDF80028F2D0EFE787
:101D10004FF0FF33636400F0EEFA38BD38B5044687
:101D20000D4600F0D7FA2268216CE36B03FB01F348
:101D3000D01860600020A063A2605B1A1344E360C7
:101D40004FF0FF336364A36475B923691BB900F0D6
:101D5000D2FA012038BD04F1100001F0A3F80128E7
:101D6000F5D100F0A0FAF2E704F1100000F026FA35
:101D700004F1240000F022FAE9E770B505460E46AA
:101D800061B100FB01F04D30FFF77CFE044618B155
:101D900000F14C03036007E000240BE04C20FFF748
:101DA00071FE044640B12460E563266401212046AB
:101DB000FFF7B4FF204670BD0024FBE710B50C46CA
:101DC00002220021FFF7D9FF034600B184631846C1
:101DD00010BD2DE9F04385B00446884601921E46A9
:101DE00000252F4627E0324641462046FFF714FFE4
:101DF000636A33B970B900F07EFA012005B0BDE81E
:101E0000F08304F1240001F04DF80128F3D100F033
:101E10004AFAF0E700F047FAEDE700F06CFA00202C
:101E2000ECE702A801F09EF812E02046FFF735FF2C
:101E300000F06CFE012500F04DFAA26BE36B9A42B4
:101E4000D1D3022ECFD0019B002BE6D0002DE8D0BD
:101E500000F051FA00F0D0FD00F03CFA636CB3F1F1
:101E6000FF3F08BF6764A36CB3F1FF3F08BFA764DF
:101E700000F041FA01A902A801F07EF8B8B900F01B
:101E800029FAD4F83890E56B00F035FAA945CCD1A1
:101E9000019904F1100000F0B1FF2046FFF7FDFEAC
:101EA00000F034FE0028C5D100F0FDF9C2E720465D
:101EB000FFF7F3FE00F02AFE00209FE72DE9F04136
:101EC00004460F4690461D4600F0F8F90646A26B00
:101ED000E36B9A4208D3022D06D00024304600F06E
:101EE00007FA2046BDE8F0812A4639462046FFF72A
:101EF00093FEA36CB3F1FF3F04D0A36C0133A36442
:101F00000124EBE7636A0BB90124E7E704F124003D
:101F100000F0C8FF30B1B8F1000F05D00124C8F8B7
:101F20000040DBE70124D9E70124D7E770B5044678
:101F30000E4600F0C3F90546A26BE36B9A4218D235
:101F4000A36B0133A363A36CB3F1FF3F04D0A36C75
:101F50000133A36401240DE0636A0BB9012409E095
:101F600004F1240000F09EFF48B156B10124346012
:101F700000E00024284600F0BBF9204670BD012493
:101F8000F8E70124F6E72DE9F04184B004468846DD
:101F900001921F4600252E4634E0E5684146204662
:101FA000FFF769FE9FB9A36B013BA36323692BB9BC
:101FB00000F0A1F9012004B0BDE8F08104F11000A7
:101FC00000F070FF0128F3D100F06DF9F0E7E56053
:101FD000636A002BECD004F1240000F063FF0028BA
:101FE000E6D000F060F9E3E700F085F90020E2E7D1
:101FF00002A800F0B7FF0FE02046FFF74EFE00F00A
:1020000085FD012500F066F9A36B002BC5D1019B6E
:10201000002BE9D0002DEBD000F06DF900F0ECFCC6
:1020200000F058F9636CB3F1FF3F08BF6664A36C1E
:10203000B3F1FF3F08BFA66400F05DF901A902A853
:1020400000F09AFFA8B900F045F9A56B00F053F92C
:10205000002DD1D1019904F1240000F0CFFE2046DB
:10206000FFF71BFE00F052FD0028CAD100F01BF95B
:10207000C7E72046FFF711FE00F048FD00209AE771
:10208000F8B504460E46174600F018F90546A36B4E
:102090002BB90024284600F02BF92046F8BD314624
:1020A0002046FFF7E8FDA36B013BA363636CB3F12C
:1020B000FF3F04D0636C013363640124EAE72369C2
:1020C0000BB90124E6E704F1100000F0EBFE18B1B3
:1020D00027B101243C60DDE70124DBE70124D9E7D7
:1020E000F8B504460E4600F0E9F80546A36B2BB997
:1020F0000024284600F0FCF82046F8BDE768314689
:102100002046FFF7B8FDE7600124F2E710B504466A
:1021100000F0E0F8A46B00F0EEF8204610BD38B5F2
:10212000054600F0D7F8AB6BEC6BE41A00F0E3F86F
:10213000204638BD806B7047806BB0FA80F0400954
:102140007047836BC06B984214BF0020012070471A
:1021500010B40A4B1B684BB10123084C54F83320D0
:102160002AB101330A2BF9D110BC70470023034A6E
:1021700042F8331002EBC3035860F5E7D02F00108C
:10218000094B5B68984209D0074A0123D168814214
:1021900005D0013308320A2BF8D170470023024AD8
:1021A000002142F833107047D02F001010B50446BC
:1021B000FFF7E6FF2046FFF7BDFC10BD00F1080366
:1021C00043604FF0FF328260C3600361002303600D
:1021D000704700230361704743684B609A688A60C8
:1021E0009A68516099600861036801330360704721
:1021F00030B40D68B5F1FF3F02D000F1080202E0F3
:10220000026904E01A4653681C68AC42FAD9536864
:102210004B6099608A605160086103680133036014
:1022200030BC704703694268816891608268416888
:1022300051605A68824204BF82685A60002202617B
:10224000186801381860704761480068006880F3BA
:10225000088862B661B6BFF34F8FBFF36F8F00DFA0
:1022600000BF4FF0807340F8043C40F8081C034B5B
:1022700040F80C3C40F8202C40387047CD2200003C
:10228000074B19680868B0E8F00F80F30988BFF3BE
:102290006F8F4FF0000080F311884EF00D0E7047E5
:1022A0008C1800107047044B4FF080521A60BFF337
:1022B0004F8FBFF36F8F704704ED00E0EFF3118095
:1022C0004FF0280181F311887047002008B5FFF70F
:1022D000F5FFFEE708B5FFF7F1FF044A1368013385
:1022E0001360BFF34F8FBFF36F8F08BD0400001062
:1022F00080F31188704708B5044A1368013B1360E6
:1023000003B108BD0020FFF7F3FFFAE70400001057
:10231000EFF30980BFF36F8F0D4B1A6820E9F00FC0
:1023200010602DE908404FF0280080F3118800F07C
:10233000DFFC4FF0000080F31188BDE80840196809
:102340000868B0E8F00F80F30988BFF36F8F70471B
:102350008C18001008B5FFF7B1FF00F069FB18B149
:10236000034B4FF080521A600020FFF7C1FF08BDF9
:1023700004ED00E0064B1B68064AA2FB03239B0901
:10238000013B054A1360054B07221A60704700BFE6
:1023900000000010D34D621014E000E010E000E0F7
:1023A00008B5094B1A6842F478021A601A6842F0BC
:1023B00078421A60FFF7DEFF044B00221A60FFF735
:1023C00043FFFFF77BFFFEE720ED00E00400001075
:1023D00008ED00E010B51820FFF754FB044620B1CB
:1023E000002340F8043BFFF7E9FE204610BD2DE92D
:1023F000F04106460D4690461F4600F0FDFA34684F
:102400007FB92C4214BF0123002383B1B8F1000F20
:1024100002D024EA0505356000F078FB2046BDE8CF
:10242000F08135EA04030CBF01230023EDE7069B8E
:10243000002BF1D0B8F1000F0CBF00214FF08071DC
:102440000FB141F08061069A2943301D00F0FEFC77
:1024500000F05CFB40B100F0C3FD044610F0007FCB
:1024600005D024F07F44D9E7FFF71DFFF3E7FFF71E
:1024700031FF34686FB9254214BF012300232BB10B
:10248000B8F1000F02D024EA05053560FFF733FFED
:10249000E7E735EA04030CBF01230023EFE770B53B
:1024A00006460C46FFF716FF356825EA040434603B
:1024B000FFF721FF284670BD10B50446FFF7FEFE6A
:1024C0002468FFF715FF204610BDF8B505460C46F9
:1024D00000F10C0600F090FA286929682143296070
:1024E00086421CD000270FE0296832EA010108D19A
:1024F00013F0807F18BF1743296841F0007100F086
:1025000007FD2046A6420BD04468036823F07F42B3
:1025100013F0806FE8D129680A42E9D1F1E700277A
:102520002B6823EA07072F6000F0F0FA2868F8BD4F
:102530002DE9F04105460F461646984600F05CFA34
:102540002C6839462846FFF7C0FF3C4336EA0403AF
:1025500008D0B8F1000F0AD12C6800F0D7FA204655
:10256000BDE8F0812B6823EA06062E60F5E74246B7
:1025700046F0A061281D00F069FC00F0C7FA40B1E8
:1025800000F02EFD044610F0007F05D024F07F44BB
:10259000E5E7FFF788FEF3E7FFF79CFE2C6836EAD5
:1025A000040304BF24EA06062E60FFF7A4FEEDE74D
:1025B00038B5044600F020FA636843B14FF0007567
:1025C0002946206900F0A4FC6368002BF8D120465E
:1025D000FFF7B0FA00F09AFA38BD08B5FFF775FFBB
:1025E00008BD08B5FFF75BFF08BDFFFF074B1B6881
:1025F0001B6833B1054B1A68D268D26852685A60BA
:102600007047024B4FF0FF325A6070478418001039
:1026100038B50D4B9A685060DB6883420CD804468D
:10262000094D2868A9680431FFF7E2FD6B68A342F1
:1026300084BF2B465C6038BD034B18699968043130
:10264000FFF7D6FDF7E700BF841800102DE9F04F23
:1026500083B083460E4617460193DDF83090DDF8CF
:1026600034A00E9D002D79D04420FFF70BFA0446CC
:1026700000287BD0056307F18042013A05EB820513
:1026800025F00705337880F8343033785BB1334672
:1026900000F13502073613F8011F02F8011B197803
:1026A00009B19E42F7D1002784F83B704E46042EB4
:1026B00028BF0426E66204F104084046FFF789FDBE
:1026C00004F11800FFF785FD2461C6F10506A66137
:1026D0006462E76384F84070019A59462846FFF720
:1026E000C0FD2060BAF1000F01D0CAF80040FFF72A
:1026F000F1FD3F4B5A6901325A619B68002B3BD078
:102700003B4BD3F8E03033B9394B9B68DB6A4B4520
:102710009CBF374B9C60364DD5F8E4300133C5F88B
:10272000E430E36AD5F8E81001229A400A43C5F87C
:10273000E82005F1180003EB8303414600EB83001A
:10274000FFF74AFDFFF7D7FDD5F8E030002B4AD060
:10275000AB68DB6A4B4542D3012045E09000FFF7B0
:1027600091F9054600287FF47FAF02E02846FFF785
:10277000E1F94FF0FF3037E01D4B9C605B69012BA6
:10278000C9D11B4D05F11800FFF718FD05F12C000C
:10279000FFF714FD05F14000FFF710FD05F15400AF
:1027A000FFF70CFD05F16800FFF708FD05F17C0758
:1027B0003846FFF703FD05F190063046FFF7FEFCB3
:1027C00005F1A400FFF7FAFC05F1B800FFF7F6FCED
:1027D00005F1CC00FFF7F2FC2F602E619BE7FFF7BD
:1027E00062FD012000E0012003B0BDE8F08F00BFD2
:1027F0008418001070B50546FFF76CFD002D3BD026
:102800002E1D3046FFF70EFD88B9EA6A02EB820101
:102810001C4B03EB81039B694BB91A48D0F8E83095
:10282000012101FA02F223EA0202C0F8E820AB6AB1
:102830001BB105F11800FFF7F5FC124C314604F10D
:10284000B800FFF7C9FCD4F8EC300133C4F8EC3021
:10285000D4F8E4300133C4F8E430FFF74CFDD4F889
:10286000E03043B1A368AB4209D0FFF733FDFFF777
:10287000BDFEFFF740FD70BD024B9D68C0E7FFF74E
:1028800012FDF8E78418001090B370B50446194A99
:102890009268824207D0FFF71DFD6269164B9A428B
:1028A00002D0FFF728FD70BDA36A144A9342F8D006
:1028B000002BF6D1261D3046FFF7B4FCE36A0D4D20
:1028C000D5F8E81001229A400A43C5F8E82005F13E
:1028D000180003EB8303314600EB8300FFF77CFC19
:1028E000AB68E26ADB6A9A42DBD3FFF7DCFCD8E72D
:1028F000704700BF841800105019001028190010EC
:102900002DE9F0410446FFF7D9FC064662691F4BEA
:102910009A4206D000253046FFF7EAFC2846BDE87B
:10292000F081A36A1A4A93422BD063BBA2F1A4039D
:10293000D3F8F030F3B9A2F1A407BB68E56ADB6A0B
:102940009D4234BF0025012504F104084046FFF7ED
:1029500069FCE06AD7F8E820012383401343C7F8F5
:10296000E830183700EB8000414607EB8000FFF7A6
:1029700033FCD0E704F118010548FFF72DFC0025D2
:10298000C9E70025C7E70025C5E700BF50190010BB
:102990002819001000B585B000230393029301931A
:1029A000009350220B490C48FFF750FE012802D03B
:1029B00005B05DF804FBFFF781FC084B4FF0FF32D8
:1029C0005A600122C3F8E0200022DA60FFF7E8FC39
:1029D000EEE700BF0C4601009D2C0000841800109B
:1029E00008B5FFF76BFC034B0022C3F8E020FFF7AC
:1029F00059FC08BD84180010034AD2F8F0300133A6
:102A0000C2F8F030704700BF84180010014BD8683E
:102A1000704700BF84180010014BD868704700BF92
:102A200084180010014B5869704700BF84180010CB
:102A30002DE9F047344BD3F8F030002B54D1324B12
:102A4000DA680132DA60D3F80C80B8F1000F05D0F3
:102A50002D4B5B6843450DD900264CE01A68196977
:102A600019601A61D3F8F4200132C3F8F420FFF79B
:102A7000BDFDEDE70026244D4FF0010A05F11809D0
:102A80001CE0214B4FF0FF325A6034E01E4A536085
:102A900031E0E06AD5F8E8200AFA00F31343C5F8FC
:102AA000E83000EB8000394609EB8000FFF794FB2B
:102AB000AB68E26ADB6A9A4228BF01262B681B6872
:102AC000002BDED02B68DB68DC6863689845DDD3BB
:102AD000271D3846FFF7A6FBA36A002BD9D004F1C7
:102AE0001800FFF79FFBD4E7074AD2F8F83001330C
:102AF000C2F8F8300026044BD3F8FC30002B0CBF92
:102B000030460120BDE8F087841800102DE9F0411F
:102B1000FFF7E0FB314BD3F8F020013AC3F8F02087
:102B2000D3F8F030002B53D12C4B5B694BB32B4CBB
:102B300004F118080127D4F8A43023B3D4F8B03036
:102B4000DD6805F11800FFF76DFB2E1D3046FFF71D
:102B500069FBE86AD4F8E82007FA00F31343C4F8E5
:102B6000E83000EB8000314608EB8000FFF734FBD3
:102B7000A368EA6ADB6A9A42DDD30123C4F8FC3019
:102B8000D8E7002425E0154BD3F8F830ABB1134B50
:102B9000D3F8F8308BB1114C012507E0D4F8F830A8
:102BA000013BC4F8F830D4F8F83033B1FFF740FFF8
:102BB0000028F3D0C4F8FC50F0E7084BD3F8FC3001
:102BC000012B01D0002404E0FFF76DFB012400E09D
:102BD0000024FFF790FB2046BDE8F0818418001028
:102BE00038B505460C46FFF707FF194BDA682B6826
:102BF0001C44934209D9A34201D82C601EE0A24292
:102C000001D32C601AE02C6004E0A34201D8A24258
:102C100018D22C600E4B98680430FFF703FB50B9B4
:102C20000B4B9968D3F8E820C86A0121814022EA59
:102C30000102C3F8E8202046FFF7EAFCFFF766FF31
:102C400010B138BD2C60F9E7FFF72DFBF9E700BFA5
:102C50008418001010B5D8B10446FFF7CDFE0E4B16
:102C6000DA68144498680430FFF7DCFA50B90A4B6C
:102C70009968D3F8E820C86A0121814022EA01025C
:102C8000C3F8E8202046FFF7C3FCFFF73FFF08B971
:102C9000FFF709FB10BD00BF8418001008B5134CE6
:102CA000D4F8EC30002BFBD0FFF7A6FED4F8B850D8
:102CB000FFF72CFF002DF3D0FFF70CFBD4F8C43046
:102CC000DD68281DFFF7AEFA6369013B6361D4F844
:102CD000EC30013BC4F8EC30FFF70DFB286BFEF73E
:102CE00029FF2846FEF726FFDAE700BF8418001008
:102CF000184BD3F8F0300BBB10B4164A0023C2F8BF
:102D0000FC30D2F8E830B3FA83F3DBB2C3F11F032F
:102D10009900C81802EB8000C4696468C461194452
:102D20000246203294420ED00A4A03EB830302EBA0
:102D30008303DB69DB68936010BC7047054B01229D
:102D4000C3F8FC20704760680A46024901EB820222
:102D5000D061E9E78418001070B50446FFF7BAFAAD
:102D600064B3261D3046FFF75DFA88B9E26A02EBCC
:102D70008201214B03EB81039B694BB91E48D0F8BC
:102D8000E830012101FA02F223EA0202C0F8E82049
:102D9000A36A1BB104F11800FFF744FA164D31463F
:102DA00005F1CC00FFF718FAFFF7A5FAAB68A342CC
:102DB00007D0114BD3F8E030B3B970BD0E4B9C680F
:102DC000CFE7D5F8E0304BB90B4B5A69D3F8CC308C
:102DD000934206D1084B00229A60EEE7FFF763FAB0
:102DE000EBE7FFF785FFE8E7FFF774FAFFF7FEFB75
:102DF000FFF781FAE1E700BF8418001038B50D46EF
:102E0000114CA1681831FFF7F3F9A0680430FFF7FF
:102E100009FA48B9A168D4F8E820C86A01218140BC
:102E200022EA0102C4F8E820B5F1FF3F05D0064BC5
:102E3000D8682844FFF7ECFB38BD034881680431AB
:102E4000CC30FFF7C9F9F7E78418001038B51546FC
:102E5000134CA36841F000419961A1681831FFF754
:102E6000BBF9A0680430FFF7DDF948B9A168D4F8D0
:102E7000E820C86A0121814022EA0102C4F8E82062
:102E8000B5F1FF3F05D0064BD8682844FFF7C0FBDB
:102E900038BD034881680431CC30FFF79DF9F7E76E
:102EA0008418001038B5C368DC6804F1180528469A
:102EB000FFF7B8F9144BD3F8F03003BB251D2846B3
:102EC000FFF7B0F9E36A1048D0F8E81001229A4001
:102ED0000A43C0F8E820183003EB8303294600EBCF
:102EE0008300FFF779F9084B9B68E26ADB6A9A4234
:102EF00083BF0120044BC3F8FC00002038BD2946E5
:102F00000248FFF769F9EEE784180010281900104D
:102F100070B541F000410160C568FFF783F92E1DCF
:102F20003046FFF77FF9EB6A0D4CD4F8E810012228
:102F30009A400A43C4F8E82004F1180003EB830325
:102F4000314600EB8300FFF747F9A368EA6ADB6AC2
:102F50009A4283BF01202346C3F8FC00002070BDC5
:102F600084180010034BD3F8F4200260DB68436040
:102F7000704700BF8418001038B504460D46FFF7AF
:102F8000A9F9124BDA682B68B3F1FF3F19D00F494A
:102F9000D1F8F4102068884202D06168914212D9B9
:102FA0006168501A834204D80124FFF7A4F920462F
:102FB00038BD8A1A13442B602046FFF7D3FF002444
:102FC000F3E70024F1E70124EFE700BF84180010C5
:102FD000024B0122C3F8FC20704700BF8418001088
:102FE000044B9A68906999689A68CB6AC3F10503A3
:102FF000936170478418001038B505460C46FFF7FA
:1030000069F9244B9B68DB6B2BB9224B9B6801222F
:1030100083F84020B4B9FFF76EF9FFF75BF91D4B59
:103020009B68DC6B2CB185BB1A4B9A68D36B013B58
:10303000D363184B9B68002283F84020FFF75BF9AD
:10304000204638BD134B98680430FFF7EBF850B9B1
:10305000104B9968D3F8E820C86A0121814022EA20
:103060000102C3F8E820B4F1FF3F07D0094BD8684C
:103070002044FFF7CDFAFFF716F9CCE70548816841
:103080000431CC30FFF7A8F8F5E7024B9B6800222B
:10309000DA63CEE784180010F8B507460D461446EB
:1030A0001E46FFF717F92B4B9B6893F84030DBB2B5
:1030B000022B0AD0274B9A68D06B20EA0700D06316
:1030C0009B68012283F84020FEB9FFF714F9FFF74F
:1030D00001F91CB11F4B9B68DB6B23601D4B9B6888
:1030E00093F84030DBB2012B32D01A4B9B68D96B7E
:1030F00021EA0501D9630124164B9B68002283F85D
:103100004020FFF7F8F82046F8BD124B98680430CD
:10311000FFF788F850B90F4B9968D3F8E820C86AD0
:103120000121814022EA0102C3F8E820B6F1FF3F05
:1031300007D0084BD8683044FFF76AFAFFF7B3F8B6
:10314000C3E7044881680431CC30FFF745F8F5E760
:103150000024D1E784180010F8B504460F46154640
:103160001E46FFF7B7F80EB1E36B336094F84030BA
:10317000DBB2022284F840206A1E032A06D8DFE868
:1031800002F0020C1012E26B1743E763012B0ED022
:103190000124FFF7B0F82046F8BDE26B0132E2638C
:1031A000F4E7E763F2E7022B22D0E763EEE7261DA0
:1031B0003046FFF737F8E36A0E4DD5F8E8100122E4
:1031C0009A400A43C5F8E82005F1180003EB830391
:1031D000314600EB8300FEF7FFFFAB68E26ADB6A73
:1031E0009A4201D80124D4E7FFF75DF80124D0E723
:1031F0000024CEE7841800102DE9F04104468846EB
:1032000015461E46FFF75AF807460EB1E36B3360CA
:1032100094F84030DBB2022284F840206A1E032A70
:1032200007D8DFE802F0020F1316E26B42EA080249
:10323000E263012B12D001243846FFF759F82046EB
:10324000BDE8F081E26B0132E263F2E7C4F83C8052
:10325000EFE7022B2CD0C4F83C80EAE7174BD3F8F9
:10326000F030FBB9251D2846FEF7DCFFE36A134862
:10327000D0F8E81001229A400A43C0F8E82018303C
:1032800003EB8303294600EB8300FEF7A5FF0B4BFE
:103290009B68E26ADB6A9A420CD9069B63B10124FF
:1032A0001C60C9E704F118010548FEF795FFEEE739
:1032B0000024C1E70124BFE70124BDE78418001002
:1032C00028190010F8B504460E46FEF7F7FF05462C
:1032D00094F84030DBB2022284F84020E26B0132E5
:1032E000E263012B03D02846FFF702F8F8BD154B27
:1032F000D3F8F030FBB9271D3846FEF793FFE36A99
:103300001048D0F8E81001229A400A43C0F8E8209B
:10331000183003EB8303394600EB8300FEF75CFFB4
:10332000084B9B68E26ADB6A9A42DCD9002EDAD04D
:1033300001233360D7E704F118010348FEF74CFF7F
:10334000EEE700BF841800102819001010B50446DD
:1033500078B1FEF7BFFF94F84030DBB2022B03BF19
:10336000002384F8403001240024FEF7C4FF2046E7
:1033700010BD014B9C68ECE78418001030B412F0CB
:10338000070407D1D20800EBC212521A92F8970034
:1033900030BC7047C1F17F0102F10803DB1000EB84
:1033A000C3130B441B7EC4F10805AB40D20800EBED
:1033B000C2120A44107E20411843C0B2E8E7F0B4BC
:1033C00012F007042BD0D508C1F17F0603FA04F1EF
:1033D00000EBC51535442F7E39432976C17D11F0A8
:1033E000020F0CBF41F0010141F00501C17502F16E
:1033F0000801C1F3C401C4F10804234100EBC11169
:1034000031440A7E13430B76C37D13F0020F0CBFC9
:1034100043F0010343F00503C375F0BC7047D208C5
:1034200000EBC212511A81F89730C37D13F0020FDE
:103430000CBF43F0010343F00503C375EDE770B51E
:1034400004460E46C17B012505FA01F1807BFDF79C
:1034500028F9617C05FA01F1207CFDF722F9FEF7DD
:1034600039FF31462068FEF7CAF9FEF744FF1026FF
:1034700029462068FEF7B2FA0028F9D031462068C4
:10348000FEF7ACFA0128F3D0E37B01219940A07B41
:10349000FDF700F970BD08B531B9437D01219940B0
:1034A000007DFDF7FEF808BD437D01219940007DB8
:1034B000FDF7F0F8F7E700F1170300F1970203F8C2
:1034C000011F83F8801083F8001183F8801183F8BE
:1034D000001283F8801283F8001383F8801393425C
:1034E000EDD1C37D43F00103C37570472DE9F84F5B
:1034F000C37D13F0010F61D0044643F00203C3758E
:103500004FF0000A10264FF00108454604E023F072
:103510000403E3754FF0000AAAF15001C9B2204636
:10352000FFF78DFF31462046FFF789FF0421204633
:10353000FFF785FFE37D13F0040FE8D14FEACA13CC
:1035400003F11807274404F19809994417F801BBBF
:10355000E17B08FA01F1A07BFDF7A3F8617C08FA92
:1035600001F1207CFDF796F8FEF7B4FE594620687D
:10357000FEF745F9FEF7BFFE29462068FEF72EFA52
:103580000028F9D031462068FEF728FA0128F3D048
:10359000E17B08FA01F1A07BFDF77CF84F4504D0F0
:1035A000E37D13F0040FD1D0B1E70AF1010ABAF1BB
:1035B000070FB1DDE37D23F00303E375BDE8F88F6A
:1035C000F0B587B00446C17B01252A4605FA01F112
:1035D000807BFDF74FF8E17C2A4605FA01F1A07CDB
:1035E000FDF748F8617C2A4605FA01F1207CFDF7D9
:1035F00041F8E17B05FA01F1A07BFDF74BF8E17C96
:1036000005FA01F1A07CFDF745F8617C05FA01F1AE
:10361000207CFDF73FF8617D2A4605FA01F1207D07
:10362000FDF728F8617D05FA01F1207DFDF732F8FC
:10363000A27A617A207AFDF771F9627B217BE07AC8
:10364000FDF76CF96846FEF7B3F8636805936946C1
:103650002068FEF733F829462068FEF7B5F8E17CCC
:1036600005FA01F1A07CFDF71CF8022009F0DEFC50
:10367000E17C05FA01F1A07CFDF70CF8022009F0CD
:10368000D5FCA2212046FFF7DAFEA0212046FFF755
:10369000D6FEC0212046FFF7D2FE27212046FFF7A5
:1036A000CEFEA77DE17B05FA01F1A07BFCF7F9FFD7
:1036B000617C05FA01F1207CFCF7F3FFFEF70AFEBE
:1036C00081212068FEF79BF8FEF715FE102629469B
:1036D0002068FEF783F90028F9D031462068FEF70C
:1036E0007DF90128F3D0FEF7F5FD39462068FEF795
:1036F00086F8FEF700FE0125102629462068FEF711
:103700006DF90028F9D031462068FEF767F90128E5
:10371000F3D0E37B01219940A07BFCF7BBFF2C2178
:103720002046FFF78CFE022009F080FC2E21204667
:10373000FFF785FE022009F079FC2F212046FFF7D4
:103740007EFE022009F072FC40212046FFF777FE42
:10375000AF212046FFF773FE00212046FFF7ABFEA6
:103760002046FFF7C3FE022009F060FCA12120469D
:10377000FFF765FEC8212046FFF761FE07B0F0BDE8
:1037800030B4C2F3C20401F07F01C1F17F0102F045
:1037900007020125954000EBC41421440C7E24EA65
:1037A000050403F0010303FA02F214430C76C37D0F
:1037B00013F0020F0CBF43F0010343F00503C37580
:1037C00030BC70472DE9F0479DF82050FBB15E1EDC
:1037D000F6B292468946804601362F4600240BE019
:1037E00083F0010707F001073B4652464046FFF7CA
:1037F000C7FF0134B4420AD0E3B209EB0301C9B2F6
:10380000022DEDD0032D08BF03F00107ECE7BDE862
:10381000F0872DE9F0479DF82050FBB15E1EF6B20F
:1038200092468946804601362F4600240BE083F0FD
:10383000010707F001073B4649464046FFF7A0FF56
:103840000134B4420AD0E3B20AEB0302D2B2022D31
:10385000EDD0032D08BF03F00107ECE7BDE8F087CA
:103860002DE9F04F87B003900E4617469DF8408033
:103870009DF8449042458CBFA2EB080AA8EB020ACF
:1038800099421BD9A1EB030BDA4564DC4646884616
:103890003A461F461346A8EB0702D2B204929E4254
:1038A0001CD29B1BDBB20293049B5C080123059393
:1038B00047455DD8CDF8049000252AE0A3EB010B25
:1038C000DA4514DD4245E6D9A7EB0802D2B20492EC
:1038D00032461E4613463A4647469046F31ADBB236
:1038E0000293049B5C084FF0FF330593E0E74246E8
:1038F000984613463A460F461646CCE783F0010336
:1039000003F00103019310E001357B19DBB243455D
:103910002ED8EBB2D919C9B2B9F1020FEED0B9F174
:10392000030F04BF03F001030193DA45019BC6BFF7
:103930000A46314632460398FFF722FF029BE41AFB
:10394000E3B25CB2002CDFDA059A1644F6B2049AB0
:103950009C1864B2D8E742459DD9A7EB0802D2B2C1
:10396000049232461E4613463A464746904698E72A
:1039700007B0BDE8F08F2DE9F04383B007460C4651
:1039800090461E469DF828909DF82C500095FFF714
:1039900019FF09F1FF32424400953346D2B2214665
:1039A0003846FFF70FFF00954B4642462146384602
:1039B000FFF72FFF711E214400954B464246C9B2C6
:1039C0003846FFF726FF03B0BDE8F0832DE9F04F3E
:1039D00083B09DF830B09DF834A0FBB15D1EEDB210
:1039E00091468846074601355646002408E0009671
:1039F0005B464A463846FFF70CFF0134AC420DD017
:103A0000E3B208EB0301C9B2BAF1040FEFD103F03E
:103A10000103002B0CBF02260326E8E703B0BDE834
:103A2000F08F2DE9F04F83B000929DF830B002F096
:103A30000702D946C2F10804A34561DACBF10804B4
:103A40004FF0FF0C4CFA04FC5FFA8CFCCDF804B08C
:103A50000CFA02FC5FFA8CFA13B3009A4FEAD20E0A
:103A6000C77D03EB01085FFA88F80D4600EBCE1E18
:103A70006FEA0C0CC5F17F027244147E2AEA040638
:103A80000CEA04043443147617F0020F0CBF47F01D
:103A9000010747F005070135EDB24545EAD1C77585
:103AA000009CA446019AA2EB040803EB010E5FFA06
:103AB0008EFE8A460CEB0802D2B202F10804A14540
:103AC00025DB0CF1080C5FFA8CFC002BF2D04FEADE
:103AD000DC07C67D524600EBC717C2F17F043C44A9
:103AE000257EED43257616F0020F0CBF46F0010649
:103AF00046F005060132D2B27245EED1C675D9E75D
:103B0000C2F10804E4B201944FF0FF0CA0E7934522
:103B10002ED9ABEB0205FF2606FA05F5EEB2F2430D
:103B2000D2B20CF1080C5FFA8CFC0BB34FEADC0C40
:103B300090F817E00B44DFB200EBCC136FEA020CF5
:103B4000C1F17F041C44227E46EA02050CEA02020F
:103B500062EA050222761EF0020F0CBF4EF0010E43
:103B60004EF0050E0131C9B2B942E9D180F817E033
:103B700003B0BDE8F08F2DE9F043894690469DF8EB
:103B80001C201C4614F8021B93F801E0BEF1000F44
:103B90002CD00027C9F1970901F1FF3C5FFA8CFC9A
:103BA0000CF1010C17E005F80139C37D13F0020F89
:103BB0000CBF43F0010343F00503C375B44206D0C4
:103BC00014F8013B002AEED1DB43DBB2EBE7083708
:103BD000FFB2BE450AD90029F9D008EB0705ED1060
:103BE00009EBC515054404EB0C06E9E7BDE8F083D5
:103BF0002DE9F04F95B002900E919DF87C707049C0
:103C00001E98002808BF08461E908178069101463C
:103C100090F803B000790D904C791394CDF848B02A
:103C20000BF10701C90811918DB2109505934B1E38
:103C3000DBB20233DB00089303190F93A2F10803F0
:103C4000099398E01E9A1A4492790692002B31D07B
:103C50001E9A511D901D013BDBB21844002311F840
:103C6000012F13449BB28142F9D1139A0632109965
:103C700003FB01239BB20A930E9A06995318802BDB
:103C800000F39A80119B002B6ED08BB207931346E2
:103C900002EB01095FFA89F9002918BF4A460C9224
:103CA0004FF0000A4FF008080B93CDF80CA0DDF898
:103CB00048A042E00023D8E7019A21460298FFF786
:103CC0007EFB0134E4B2A14515D016F8013B0FB9D3
:103CD000DB43DBB2BBF1080FEED9C245ECDA049A44
:103CE00043FA02F5EDB2019A21460298FFF746FB2E
:103CF0002843C3B2E0E7012F14BFFF230023BBF129
:103D0000080F0DD9C2450BDAA8EB0B0443FA04F4F3
:103D1000E4B2019A0C990298FFF730FB2043C3B23A
:103D2000059A1278D2B908F10808039B079A134440
:103D30009BB20393089B984516D0099B4344DBB282
:103D40000193069B002BD6D0A8EB0B0304930A9B90
:103D5000039A9E181E9B1E440B9CB6E7019A0C9971
:103D60000298FFF72CFBDEE70E9B0133069A134403
:103D700003F0FF030E93059A12F8013B0592DBB1A5
:103D80000D9A9342F7D30F998B42F4DA9B1ADBB268
:103D90001E9A1278002A7FF455AF1E9A5278002A94
:103DA0007FF450AF069A109902FB01F202FB03F375
:103DB00006339BB20A935FE715B0BDE8F08F00BFF2
:103DC00014460100FFFFFFFF70B504460D4643781F
:103DD000012B15D013B1022B24D070BD8268002AAC
:103DE000FBD003790B42F8D086783340837090473C
:103DF00005F0790523791D4026EA0506A670ECE753
:103E00008268002AE9D003790B42E6D086783340F5
:103E10008370904705F0790523791D4026EA050651
:103E2000A670DAE78268002AD7D003790B42D4D093
:103E3000867833408370904705F0790523791D40DB
:103E400026EA0506A670C8E7012815D048B1022861
:103E500020D016490B7801EB8300426001330B70D0
:103E60007047117000235370936013711382538253
:103E70001373D3709370ECE7117001235370002318
:103E8000936013719382D3821373D37093701376FC
:103E90009376DEE711700223537000239360137151
:103EA0001373D37093705382D3E700BF841900104B
:103EB00070B504460D464378012B0DD013B1022B8B
:103EC00029D070BD087860734B78A373002201215C
:103ED0009940FCF7CFFBF4E7087860734978A17349
:103EE0000126002206FA01F1FCF7C4FBA878E07372
:103EF000E97821742B7963746B79A374002206FA34
:103F000001F1FCF7B7FBA17C002206FA01F1607C0D
:103F1000FCF7B0FBD5E7087860734978A173AA78FD
:103F2000E273EB782374FCF7F9FCCAE7437813B12A
:103F3000012B04D0704731B902824282704719B117
:103F4000012908BF027670478282C2827047437897
:103F5000012B05D013B1022B04D0704701717047BB
:103F600001717047017170474378012B05D013B17F
:103F7000022B04D070478160704781607047816078
:103F8000704703464278012A09D01AB1022A0BD0A1
:103F900000207047807820F079029A70704780780E
:103FA00020F079029A707047807820F079029A7038
:103FB0007047014B18787047080000100F4B03EB57
:103FC0004003B3F85430132B0BD940F6EB729342F5
:103FD0000DD90A4B03EB400340F6FF72A3F85420BF
:103FE00005E0064B03EB40030022A3F85420034BEB
:103FF00003EB4000B0F85400704700BF8419001074
:10400000914B1B78002B00F0AF812DE9F04F83B06E
:1040100000258D4EDFF834B2DFF834923EE1607B4C
:10402000FCF7AAFBA37BD84010F001000CBF0122D3
:104030000022E17801F001039A4220D0237B013B6A
:10404000DBB22373002B40F0248121F001010A43ED
:10405000E27090B3A37803F0FD0312F0100F14BFC9
:1040600043F0040343F00503A37022F01002E27052
:1040700005212046FFF7A8FE0F23237309E1B8B9F5
:1040800032232373638A002B00F00381013B9BB230
:104090006382002B40F0FD80A37843F00803A370F7
:1040A00041F01001E17008212046FFF78DFEF0E09D
:1040B0000F232373238A6382EBE0A37823F00403A6
:1040C00043F00203A37002212046FFF77DFE322356
:1040D0002373DEE0607BFCF74FFBA37BD84010F03E
:1040E00001000CBF01220022E17801F001039A4295
:1040F00040D0237B013BDBB22373CBB921F001011C
:104100000A43E270002851D0A37803F0FD0312F0B7
:10411000100F14BF43F0040343F00503A37022F013
:104120001002E27005212046FFF74EFE2323237381
:10413000677E07F00308E07BFCF71EFB237CD8407A
:1041400000F0010048EA8008607CFCF715FBA37CC6
:10415000D84000F0010048EAC000C3B20F2862D87E
:10416000DFE800F03431595D59346131316134593F
:104170005D593134A8B964232373E38A002BD7D067
:10418000013B9BB2E382002BD2D1A37843F008031A
:10419000A37041F01001E17008212046FFF714FEE2
:1041A000C6E723232373A38AE382C1E7A37823F01E
:1041B000040343F00203A37002212046FFF704FE2C
:1041C00064232373B4E7A27E013AA2769B08637648
:1041D00096F8643023B196F86530013386F865307F
:1041E00094F91A30002BB8BF5B42227E934250DB19
:1041F000012386F8643096F86530632B2AD896F848
:1042000066300133DBB286F86630072B0FD90723FF
:104210008BF8003028E0A27E0132A276D6E7A27E9B
:10422000023AA276D2E7A27E0232A276CEE7052B30
:1042300003D905238BF8003016E0032B8CBF032332
:1042400001238BF800300FE08419001008000010E3
:1042500081000880002386F8653086F8643086F88F
:10426000663001238BF80030A37803F09F0343F0FE
:104270001002A27094F91A20002ACCBF43F0300338
:1042800043F05003A37070212046FFF79DFD0023EB
:10429000A3760135EDB23378AB4262D906EB8503E4
:1042A0005C686378012B3FF415AF002B3FF4B7AE89
:1042B000022BEED10122217C2F48FCF767F9002860
:1042C000E7D0A37803F07F03A370217C2A48FCF792
:1042D00057F9824694F8008006EB4807B7F8680063
:1042E00009F0DEFA22A3D3E9002309F043FBCDE96C
:1042F0000001504609F02AFF204909F07BFF09F030
:10430000E1FA02460B46DDE9000109F07DF909F00A
:10431000F3FD80B2A7F86800A0EB003089FB002312
:104320001A18C317C3EBE22303F6FF739BB2628A2A
:104330009A4234BF9A1AD21AB2F5967FD4BF00229D
:104340000122002AA5D0638206EB4808A8F8543061
:10435000A37863F07F03A37080212046FFF734FD2C
:1043600097E703B0BDE8F08F704700BFAFF3008060
:104370000000007B14AEEF3F004003400AD7233C0F
:1043800038B5044611B101290ED038BDC1780125D8
:1043900005FA01F18078FCF77DF9617905FA01F100
:1043A0002079FCF77EF9F0E74179012505FA01F162
:1043B0000079FCF76FF9E17805FA01F1A078FCF7D4
:1043C00070F9E2E770B584B004461546FFF7D8FFF0
:1043D000E179012606FA01F1A079FCF762F9E17AA8
:1043E00006FA01F1A07AFCF75CF98C230093009B9C
:1043F0005A1E0092002BFAD12A4600216078FCF761
:1044000064FAEA43D2B200216078FCF76AFAC82362
:104410000193019B5A1E0192002BFAD1637A01216C
:104420009940207AFCF736F94FF4E1730293029B2E
:104430005A1E0292002BFAD1637A01219940207A08
:10444000FCF72FF90A230393039B5A1E0392002BB8
:10445000FAD104B070BD08B531B9C37B01219940D0
:10446000807BFCF71EF908BDC37B01219940807B4E
:10447000FCF710F9F7E730B4C2F3C20501F07F0191
:1044800000EBC5140C44247C012B0CD002F0070275
:10449000012303FA02F224EA020400EBC5100844E7
:1044A000047430BC704702F0070203FA02F21443AE
:1044B000E4B2F2E72DE9F0479DF82050FBB15E1E13
:1044C000F6B292468946804601362F4600240BE01C
:1044D00083F0010707F001073B4652464046FFF7CD
:1044E000CAFF0134B4420AD0E3B209EB0301C9B2F6
:1044F000022DEDD0032D08BF03F00107ECE7BDE866
:10450000F0872DE9F0479DF82050FBB15E1EF6B212
:1045100092468946804601362F4600240BE083F000
:10452000010707F001073B4649464046FFF7A3FF56
:104530000134B4420AD0E3B20AEB0302D2B2022D34
:10454000EDD0032D08BF03F00107ECE7BDE8F087CD
:104550002DE9F04F87B003900E4617469DF8408036
:104560009DF8449042458CBFA2EB080AA8EB020AD2
:1045700099421BD9A1EB030BDA4564DC4646884619
:104580003A461F461346A8EB0702D2B204929E4257
:104590001CD29B1BDBB20293049B5C080123059396
:1045A00047455DD8CDF8049000252AE0A3EB010B28
:1045B000DA4514DD4245E6D9A7EB0802D2B20492EF
:1045C00032461E4613463A4647469046F31ADBB239
:1045D0000293049B5C084FF0FF330593E0E74246EB
:1045E000984613463A460F461646CCE783F0010339
:1045F00003F00103019310E001357B19DBB2434561
:104600002ED8EBB2D919C9B2B9F1020FEED0B9F177
:10461000030F04BF03F001030193DA45019BC6BFFA
:104620000A46314632460398FFF725FF029BE41AFB
:10463000E3B25CB2002CDFDA059A1644F6B2049AB3
:104640009C1864B2D8E742459DD9A7EB0802D2B2C4
:10465000049232461E4613463A464746904698E72D
:1046600007B0BDE8F08F2DE9F04383B007460C4654
:1046700090461E469DF828909DF82C500095FFF717
:1046800019FF09F1FF32424400953346D2B2214668
:104690003846FFF70FFF00954B4642462146384605
:1046A000FFF72FFF711E214400954B464246C9B2C9
:1046B0003846FFF726FF03B0BDE8F0832DE9F04F41
:1046C00083B09DF830B09DF834A0FBB15D1EEDB213
:1046D00091468846074601355646002408E0009674
:1046E0005B464A463846FFF70CFF0134AC420DD01A
:1046F000E3B208EB0301C9B2BAF1040FEFD103F042
:104700000103002B0CBF02260326E8E703B0BDE837
:10471000F08F00B583B001914023009380230022E5
:104720001146FFF7CBFF03B05DF804FB2DE9F04F16
:1047300083B09DF830B002F00704D946C4F10805F3
:10474000AB4549DACBF108054FF0FF0C4CFA05FCFC
:104750005FFA8CFCCDF804B00CFA04FC5FFA8CFA1A
:10476000BBB14FEAD20E03EB01085FFA88F80E46A0
:1047700000EBCE1E6FEA0C0C0EEB06073C7C2AEA1F
:1047800004050CEA04042C433C740136F6B2464599
:10479000F2D19446019CA21A03EB010E5FFA8EFE41
:1047A00088460CEB0204E4B204F10805A9451ADBC3
:1047B0000CF1080C5FFA8CFC002BF2D04FEADC07FE
:1047C000444600EBC7173E19357CED433574013480
:1047D000E4B2A645F7D1E4E7C4F10805EDB20195CE
:1047E0004FF0FF0CB8E7A34520D9ABEB0406FF253B
:1047F00005FA06F6F5B2EA43D2B20CF1080C5FFAFC
:104800008CFC9BB14FEADC0C0B44DCB200EBCC1C03
:10481000D6430CEB0102137C45EA0300334063EA04
:10482000000313740131C9B28C42F2D103B0BDE868
:10483000F08F2DE9F04390469DF81C701C4614F84B
:10484000022B93F801E0BEF1000F21D000261031B9
:1048500002F1FF3C5FFA8CFC0CF1010C0EE005F854
:10486000013B4C4506D014F8013B002FF7D1DB4348
:10487000DBB2F4E70836F6B2B64509D9002AF9D01A
:1048800008EBD60501EBC515054404EB0C09EAE776
:10489000BDE8F0832DE9F04F99B0019012911546D3
:1048A0000D929DF88CA0A34A2299002908BF1146B9
:1048B000229189780791229991F803B00879119093
:1048C0004A79CDF808B00BF10701C90814918CB2F0
:1048D000159404934B1EDBB20233DB000B93831859
:1048E0001393A5F108030C93931D1693229B063393
:1048F0001793D146F9E0229A1A449279079243B36A
:10490000229A501D013BDBB2179A1344002210F883
:10491000011F0A4492B29842F9D1159B169902FBE5
:10492000031293B20E93149B002B00F0D7800799CB
:104930008BB20993129A53185FFA83FA134600292F
:1049400018BF52461092002203924FF008080F93AE
:1049500061E00022E1E708991144097C01FA09F1BC
:10496000B018007C28410143C9B20B43C5B9B11846
:104970000B740132D2B2924523D014F8013B0FB927
:10498000DB43DBB2BBF1080FF0D902994145EDDA08
:1049900005990B41DBB2002DDDD1B118097CE4E7AC
:1049A00003FA05F1B01890F810C041EA0C01017447
:1049B00043FA09F3019971441144087C03430B74D1
:1049C000D7E7B946069FB9F1010F14BFFF230023B3
:1049D000BBF1080F11D9029A42450EDAA8EB0B027F
:1049E0001341DBB217F007003ED1FA08019901EB41
:1049F000C21210990A44127C1343049A1278002AB6
:104A000047D108F10808039B099A13449BB203930A
:104A10000B9B984562D05FFA88F30A930C9A9F1813
:104A2000FFB2079A002ACED0A8EB0B020592FE082F
:104A30000D9A02EB030ECEF3C40E0E9B039A9C1844
:104A4000229B1C440F9A07F00705019901EBC6163B
:104A50007B1C01EBC3130893C5F108034FEACE1E7C
:104A600006974F46994688E77A1C019C04EBC212D0
:104A7000109D2A44117CC0F1080201FA02F2F908E3
:104A800004EBC1112944097C41FA00F00243D2B27F
:104A9000B2E717F0070207D1FA08019901EBC21239
:104AA00010990A441374ACE7F90803FA02F0019D67
:104AB00005EBC111109E31440C7C204308740A9907
:104AC0000D980144C1F3C401C2F10802134105EB82
:104AD000C11131440A7C13430B7492E7129B0133DA
:104AE000079A134403F0FF031293049A12F8013B50
:104AF0000492DBB1119A9342F7D313998B42F4DA03
:104B00009B1ADBB2229A1278002A7FF4F4AE229A22
:104B10005278002A7FF4EFAE079A159902FB01F252
:104B200002FB03F306339BB20E93FCE619B0BDE81B
:104B3000F08F00BFFC4701002DE9F04F87B004461D
:104B400000F14F0301934FF000080126DDF80490B7
:104B50004FF0000B6BF04702D2B241462046FFF700
:104B600031FC402241462046FFF72CFCA9F14005CC
:104B70004FF08C0A002741462046FFF701FCE179FF
:104B800006FA01F1A079FBF785FDE17A06FA01F159
:104B9000A07AFBF786FDCDF808A0029B5A1E029270
:104BA000002BFAD115F8012F39466078FBF78DFEFE
:104BB0002A78D243D2B239466078FBF792FEC823F6
:104BC0000393039B5A1E0392002BFAD1617A06FAD3
:104BD00001F1207AFBF75EFD4FF4E1730493049B2F
:104BE0005A1E0492002BFAD1617A06FA01F1207A5A
:104BF000FBF757FD0A230593059B5A1E0592002BD0
:104C0000FAD14D45B7D10BF1010B09F18009BBF188
:104C1000080F9FD108F101085FFA88F8019B403323
:104C20000193B8F1020F91D107B0BDE8F08F30B514
:104C300083B00446504A1378591C11700370417BAD
:104C400001252A4605FA01F1007BFBF713FDE17A05
:104C50002A4605FA01F1A07AFBF70CFDE1792A4614
:104C600005FA01F1A079FBF705FD617A2A4605FAFC
:104C700001F1207AFBF7FEFCE1782A4605FA01F102
:104C8000A078FBF7F7FC61792A4605FA01F1207953
:104C9000FBF7F0FC2B46FF2200216078FBF7E8FDD4
:104CA000E17B2A4605FA01F1A07BFBF7E3FCE17BFF
:104CB00005FA01F1A07BFBF7EDFC617A05FA01F141
:104CC000207AFBF7EEFC0A230093009B5A1E009209
:104CD000002BFAD1E178012505FA01F1A078FBF764
:104CE000E0FC617905FA01F12079FBF7DAFCE17962
:104CF00005FA01F1A079FBF7D4FCE17A05FA01F19C
:104D0000A07AFBF7CEFC8C230193019B5A1E0192E3
:104D1000002BFAD1617B012505FA01F1207BFBF71D
:104D2000C0FC42F2107008F072F9617B05FA01F1E3
:104D3000207BFBF7AFFC4CF2503008F068F93F22C3
:104D400000212046FFF73EFBC02200212046FFF74E
:104D500039FB3F2229462046FFF734FBC022294673
:104D60002046FFF72FFB00212046FFF7D2FC20460C
:104D7000FFF7E2FE03B030BDFC190010FFFFFFFF9C
:104D80002DE9F84F344B1B6898425ED801285ED459
:104D90008A460D1802EBC0004FF00009DFF8BC8016
:104DA000DFF8B4B034E0DBF80030013BCBF8003082
:104DB000631CC8F8F83104EB440408EBC404013D5B
:104DC0002B782370A0F108076760237A03F0FE03B5
:104DD0006FF341032372012650F8041C324606FA91
:104DE00001F110F8080CFBF745FC63680022197903
:104DF0001878FBF793FD6368596806FA01F1187893
:104E0000FBF74FFCC4F814903846A14655451FD017
:104E1000D8F8F841142CC6D9D8F804309BB10F4B00
:104E20000124DA692AB101341833152CF9D1002490
:104E3000C5E704EB440408EBC404DBF80030013B95
:104E4000CBF80030BBE74446F7E7002400E000243D
:104E50002046BDE8F88F00BF0C000010001A0010BB
:104E600010B50446406938B92CB100236360044A88
:104E700013680133136010BDFFF7F2FFF4E700BFC2
:104E80000C000010012AA8BF012270B3F8B50E462D
:104E90001546044601270CE06368596807FA01F1DA
:104EA0001878FBF7F7FB237A65F300032372646934
:104EB000D4B123781E42FAD0237A03F0FD036FF3B6
:104EC000C303237203F00103AB42F0D0002DB8BF3F
:104ED000C3F10105012DDFD06368596807FA01F1BC
:104EE0001878FBF7DEFBDEE7F8BD704708B5012256
:104EF000FFF7C8FF08BD08B50022FFF7C3FF08BDD4
:104F000008B54FF0FF32FFF7BDFF08BD22B310B464
:104F100014460BB190B903E0037A6FF341030372B7
:104F200010BC7047027A6FF3820202720382027A27
:104F300042F00202027240690028F1D00278114268
:104F4000F9D08481C381027A12F0010FEAD042F0D5
:104F5000040202720482EAE7037A6FF341030372E8
:104F600070472DE9F8433A4BB3F8FC410134A4B241
:104F7000204608F095FC34A3D3E9002308F080FF15
:104F800050B9334BA3F8FC414FF00008304D0024DA
:104F90002F464FF0010929E02D4B0022A3F8FC21F8
:104FA0004FF00108F2E713F0040F37D0516809FA07
:104FB00001F11078FBF775FB04EB440307EBC30327
:104FC0001A7A6FF300021A72F389338204EB4402F7
:104FD00007EBC202137AC3F38001C1F1010161F34F
:104FE0008203137201341835152C28D02E466A68B6
:104FF000002AF7D004EB440307EBC3031B7A13F03A
:10500000020FEFD0B8F1000FECD0298A0029CAD0E6
:10501000013989B229820029E4D1C4E7516809FA2B
:1050200001F11078FBF736FB04EB440307EBC303F5
:105030001A7A42F001021A72B3893382C6E7BDE8D8
:10504000F88300BFAFF3008064703E06E76348401A
:10505000001A00102DE9F04F89B0406807F04BFEB0
:10506000049007F0B5FE059000230693002865D054
:105070008246504B1B680193002B46D0049B029341
:10508000DFF83CB100230393009328E047B1002DE3
:1050900057D0252128460AF001F8002851D00137C1
:1050A000A24512D9631C4C450FD21C4656F8045F2A
:1050B00058F8041F28460AF065F80028E6D10137A1
:1050C000EEE7013701230393EAE7002F41D1009B6C
:1050D000013300930BF1100B019A93421ED0DBF8C1
:1050E0000890B9F1000FF2D0DBF80460043E029B97
:1050F000A3F1040801240027D8E7BA4546D0039B52
:10510000002B43D14FF0FF330AE04FF0FF3307E0AD
:105110006FF0020304E06FF0010301E04FF0FF3392
:10512000DB43254A52F8234020460AF067F901463E
:10513000204600F019FB0498FCF7FCFC09B0BDE820
:10514000F08F1E4928460AF01DF80028B9D0A24564
:10515000A8D8184B009A03EB0213DD68A5420DD9BD
:10516000144B03EB02139B68144953F824000AF014
:1051700009F80028039B08BF01230393039AAB1A85
:105180009A45C5D3AA45B8D9002AC4D0009A134677
:10519000002AC5DB074B009A03EB02131B69002BA7
:1051A000C9D004A8984706980028C4D0079900F0F1
:1051B000DBFAC0E7001C0010100000104C6B01006F
:1051C000041C00100F4B1B68132B00D9FEE770B5B1
:1051D0000E4607F00BFF0B4C256804EB05156860C5
:1051E00007F089FDA860256804EB0515A86807F09D
:1051F000EFFDE860236804EB0312166101332360BE
:1052000070BD00BF001C001070B506460D460B4B6C
:105210008B600AF0F3F81F2892BFE8601F23EB6051
:10522000074C2022314604F5A2700AF05FF9EB68C2
:105230001C44002384F8443170BD00BF441D00109D
:10524000001C0010094B1B687BB170B5084C002591
:10525000261F2068FCF76EFC6068FCF76BFC0135CC
:1052600010343368AB42F4D870BD7047001C001096
:10527000041C001001289DBF034B4FF4836202FB06
:1052800000300020704700BF20000010014B186064
:10529000704700BF641D001006289DBF024B03EB42
:1052A0008000406800207047641D0010012811D95B
:1052B000831EDBB2062B13D9082818D9A0F10903E5
:1052C000DBB2072B1AD8093800EB80000C4B03EB3C
:1052D00080007047C0EBC0000A4B03EB80007047B2
:1052E000023800EB8000084B03EB80007047023867
:1052F00000EB8000044B03EB8000704700207047F8
:10530000481E0010841D0010BC1D00102DE9F04740
:1053100086B0FAF749FF01218F48FBF771F88F4EED
:105320003046FCF737FC42F210718D48FBF7B4F8B9
:10533000344654F8103FADF814301B0C8DF816307D
:10534000884D2C36032754F8042F05A93846FFF75B
:1053500017FD45F8040FB442F5D1834E002501270F
:10536000DFF814924FF0030808E04FF4FA720021BE
:105370005046FEF7DBFD013506F58366ECB230469C
:10538000FEF71EF92046FFF791FF824602462146AE
:105390003846FEF759FD59F825105046FEF788FDAE
:1053A000424639465046FEF7C1FD002CDDD0322280
:1053B00000215046FEF7BAFD0134E4B2012CDAD9DF
:1053C0006A4F0024A046E6B2B01CC0B2FFF76EFFE1
:1053D0000546024631464046FEF736FD57F8041FA3
:1053E0002846FEF765FD0134072CECD1604F002400
:1053F0004FF0020ADFF868914FF00108E5B205F1BD
:105400000900C0B2FFF752FF064602462946504641
:10541000FEF71AFD57F8041F3046FEF749FD4246D5
:1054200029464846FBF79BF80134082CE6D10121B8
:105430004B48FBF768F84B4C4FF0040AC4F800A047
:1054400001258DF80C500A23049300278DF8007075
:105450008DF801508DF803508DF80270029503AA63
:1054600039464FF04020FBF76CFB69464FF0402077
:10547000FBF73AFCDFF80481182388F80133022691
:10548000C8F8006029464FF04020FBF71BFC8DF860
:105490000C504FF4FA7304938DF800508DF80150BE
:1054A0008DF803508DF802700295DFF8D49003AAAE
:1054B00039464846FBF745FB69464846FBF714FC6E
:1054C000102388F80233C8F800A029464846FBF7A5
:1054D000F9FB84F8B051274BC4F8B43184F8B851C3
:1054E00084F8BB6184F8BC5184F8BD612023C4F802
:1054F000C43184F8BE6184F8BF7184F8C061C4F817
:10550000C83184F8D87104F5D87007F04BF984F8E5
:10551000DC614FF4E133C4F8E03184F8E46184F8ED
:10552000E761092384F8E83184F8E9614023C4F88D
:10553000F03184F8EA61082284F8EB2184F8EC6108
:10554000C4F8F43184F8047204F5EE7007F02AF917
:1055500006B0BDE8F08700BF1E902001244A01007C
:1055600000400340641D001020000010584A010054
:10557000744A010060E31600544A010000E100E0B3
:1055800000800040014BD3F834027047641D0010C6
:1055900008B5FEF70EFD08BD08B5FEF70FFD08BD06
:1055A00008B520B102280CD0012819D008BD4FF44D
:1055B0007A70FDF74FFB4FF480410120FBF76AF84A
:1055C000F4E74FF480410120FBF76BF84FF4FA60E9
:1055D000FDF740FB4FF480410120FBF75BF8E5E766
:1055E0004FF480410120FBF75CF841F28830FDF771
:1055F00031FB4FF480410120FBF74CF8D6E710B5A2
:1056000000214FF04020FBF773FA012805D000215C
:105610004FF04020FBF782FA10BDFFF7A2FC1F4BB2
:105620001B68EBB901221D49C1F838221B4AD2F888
:1056300038222AB31A4CC3F10403C4F830380021CD
:105640002046FDF728FF002104F58360FDF723FFC6
:10565000124AD2F8383283F00103C2F83832D6E762
:10566000042B08D00E49D1F83028013AC1F830286F
:10567000002ACCD1DAE7094A0021C2F83812D5E76E
:10568000074CC4F8303801212046FDF704FF012102
:1056900004F58360FDF7FFFEDAE700BF641D00102C
:1056A0002000001008B501210948FBF721FA012864
:1056B00004D001210648FBF731FA08BDFEF7A0FC33
:1056C000044AD2F834320133C2F83432F1E700BF71
:1056D00000800040641D001010B592B0402202A965
:1056E000007807F039F908B912B010BD0446024637
:1056F00002A9104B186807F068FD9DF808304BB1FF
:1057000002AB0DF1070210198342EDD013F8011F0F
:105710000029F9D112A9002341F8443D054B5868EE
:10572000FCF704FC019B002BDED0034B4FF08052B2
:105730001A60D9E7A01F001004ED00E010B50021A9
:105740000520FCF73BFB064C606040F6184007F074
:1057500019FD20600349012007F06EF910BD00BF5C
:10576000A01F0010D956000008B54A1C01460120B0
:1057700007F0ACF808BD08B500234FF0FF3219461A
:1057800004484068FCF7FFFB012806BF014B18687E
:10579000002008BDA01F0010014B9960D860704721
:1057A000A01F0010084BDB684BB110B5064CA16878
:1057B00098470023E360044B00221A7410BD024B8B
:1057C00000221A74704700BFA01F0010034B012273
:1057D0001A741A46137C002BFCD17047A01F0010CE
:1057E00008B5FFF747FD0021FDF765FE08BD2DE96F
:1057F000F0439FB005460E46032894BF00200120C9
:10580000FFF738FD0446072D15D8DFE805F0046ED4
:105810007F92046E7F921B238DF86C3020238DF8CD
:105820006D3000218DF86F100191102300934123FA
:105830001822FEF7CBF8002E00F08E800722716848
:1058400007A809F053FE77698349384608F08EFEB1
:10585000002840F00D81384608F034F8804689462B
:1058600073A3D3E9002308F015FB002840F0BF81A3
:1058700071A3D3E900234046494608F00BFB0028FA
:1058800040F0BE816EA3D3E900234046494608F0AC
:10589000E3FA002800F0CB816BA3D3E90023404654
:1058A000494608F0F7FA002840F0B18168A3D3E92F
:1058B00000234046494608F0CFFA002800F0AE81A8
:1058C0000DF10C086549384608F048FD08F058FE0F
:1058D00000230622414607F0A0FA404609F08EFD5B
:1058E0005F4B1B8828F80030D6E01B238DF86C3006
:1058F0002F238DF86D3000218DF86F10019110234A
:10590000009341232822FEF761F894E764238DF881
:105910006C3020238DF86D3001238DF86F3000231B
:105920000193102300933F2318224121FEF74EF8E4
:1059300081E764238DF86C302F238DF86D300123BF
:105940008DF86F3000230193102300933F2328220A
:105950004121FEF73BF86EE7424B93E803000F90BE
:10596000ADF8401005F131038DF8413000238DF87A
:10597000423001228DF858208DF868303A4A18924A
:105980008DF857308DF856308DF864308DF86530CD
:105990008DF867308DF866300FAB17939DF86F3038
:1059A0004BB30FA809F02AFD80469DF86C0008381B
:1059B00007F076FF06460F46404607F061FF0022DB
:1059C0002A4B07F0D7FF02460B463046394607F010
:1059D00019FE08F091FAC0B28DF854009DF86D30B0
:1059E000033B8DF8553009238DF8593015A9204611
:1059F00005F0ABFBF3E00FA809F000FD80469DF831
:105A00006C00033007F04CFF06460F46404607F097
:105A100037FF0022154B07F0ADFF02460B4630461C
:105A2000394607F0EFFD08F067FAC0B2D4E700BFCF
:105A30009A99999999F95840CDCCCCCCCCCC2340AB
:105A4000CDCCCCCCCCCC23C09A99999999F958C09B
:105A500033333333F387C3C0003C1C4600007A4421
:105A60007C4D0100884D01008C4B01000000F83F87
:105A70000DF10C08AD49384608F070FC08F080FDC7
:105A800000230622414607F0C8F9404609F0B6FC5B
:105A9000A74B1B8828F80030052203A905A809F0A8
:105AA00025FDF7683B78002B08BF00274FF0000862
:105AB000CDF800801F23182240212046FDF7A9FEC3
:105AC0004FF00109CDF8009080231822414620466E
:105AD000FDF778FE8DF86E90706908F051FDADF815
